{"contracts/FundDAO.sol":{"FundDAO":{"abi":[{"inputs":[{"internalType":"address","name":"_fundToken","type":"address"}],"stateMutability":"nonpayable","type":"constructor"},{"inputs":[{"internalType":"address","name":"owner","type":"address"}],"name":"OwnableInvalidOwner","type":"error"},{"inputs":[{"internalType":"address","name":"account","type":"address"}],"name":"OwnableUnauthorizedAccount","type":"error"},{"anonymous":false,"inputs":[{"indexed":true,"internalType":"address","name":"previousOwner","type":"address"},{"indexed":true,"internalType":"address","name":"newOwner","type":"address"}],"name":"OwnershipTransferred","type":"event"},{"anonymous":false,"inputs":[{"indexed":true,"internalType":"uint256","name":"propostaId","type":"uint256"},{"indexed":true,"internalType":"address","name":"proponente","type":"address"},{"indexed":false,"internalType":"string","name":"descricao","type":"string"},{"indexed":false,"internalType":"uint256","name":"prazoFinal","type":"uint256"}],"name":"PropostaCriada","type":"event"},{"anonymous":false,"inputs":[{"indexed":true,"internalType":"uint256","name":"propostaId","type":"uint256"},{"indexed":false,"internalType":"bool","name":"aprovada","type":"bool"}],"name":"PropostaExecutada","type":"event"},{"anonymous":false,"inputs":[{"indexed":true,"internalType":"uint256","name":"propostaId","type":"uint256"},{"indexed":true,"internalType":"address","name":"votante","type":"address"},{"indexed":false,"internalType":"bool","name":"aFavor","type":"bool"},{"indexed":false,"internalType":"uint256","name":"pesoVoto","type":"uint256"}],"name":"VotoRegistrado","type":"event"},{"inputs":[{"internalType":"uint256","name":"_propostaId","type":"uint256"}],"name":"consultarProposta","outputs":[{"internalType":"string","name":"descricao","type":"string"},{"internalType":"address","name":"proponente","type":"address"},{"internalType":"uint256","name":"votosAFavor","type":"uint256"},{"internalType":"uint256","name":"votosContra","type":"uint256"},{"internalType":"uint256","name":"prazoFinal","type":"uint256"},{"internalType":"bool","name":"executada","type":"bool"},{"internalType":"bool","name":"aprovada","type":"bool"}],"stateMutability":"view","type":"function"},{"inputs":[{"internalType":"string","name":"_descricao","type":"string"}],"name":"criarProposta","outputs":[{"internalType":"uint256","name":"","type":"uint256"}],"stateMutability":"nonpayable","type":"function"},{"inputs":[],"name":"duracaoVotacao","outputs":[{"internalType":"uint256","name":"","type":"uint256"}],"stateMutability":"view","type":"function"},{"inputs":[{"internalType":"uint256","name":"_propostaId","type":"uint256"}],"name":"executarProposta","outputs":[],"stateMutability":"nonpayable","type":"function"},{"inputs":[],"name":"fundToken","outputs":[{"internalType":"contract IERC20","name":"","type":"address"}],"stateMutability":"view","type":"function"},{"inputs":[{"internalType":"uint256","name":"","type":"uint256"},{"internalType":"address","name":"","type":"address"}],"name":"jaVotou","outputs":[{"internalType":"bool","name":"","type":"bool"}],"stateMutability":"view","type":"function"},{"inputs":[],"name":"owner","outputs":[{"internalType":"address","name":"","type":"address"}],"stateMutability":"view","type":"function"},{"inputs":[{"internalType":"uint256","name":"","type":"uint256"}],"name":"propostas","outputs":[{"internalType":"string","name":"descricao","type":"string"},{"internalType":"address","name":"proponente","type":"address"},{"internalType":"uint256","name":"votosAFavor","type":"uint256"},{"internalType":"uint256","name":"votosContra","type":"uint256"},{"internalType":"uint256","name":"prazoFinal","type":"uint256"},{"internalType":"bool","name":"executada","type":"bool"},{"internalType":"bool","name":"aprovada","type":"bool"}],"stateMutability":"view","type":"function"},{"inputs":[],"name":"quorumMinimo","outputs":[{"internalType":"uint256","name":"","type":"uint256"}],"stateMutability":"view","type":"function"},{"inputs":[],"name":"renounceOwnership","outputs":[],"stateMutability":"nonpayable","type":"function"},{"inputs":[{"internalType":"uint256","name":"_novaDuracao","type":"uint256"}],"name":"setDuracaoVotacao","outputs":[],"stateMutability":"nonpayable","type":"function"},{"inputs":[{"internalType":"uint256","name":"_novoQuorum","type":"uint256"}],"name":"setQuorumMinimo","outputs":[],"stateMutability":"nonpayable","type":"function"},{"inputs":[],"name":"totalPropostas","outputs":[{"internalType":"uint256","name":"","type":"uint256"}],"stateMutability":"view","type":"function"},{"inputs":[{"internalType":"address","name":"newOwner","type":"address"}],"name":"transferOwnership","outputs":[],"stateMutability":"nonpayable","type":"function"},{"inputs":[{"internalType":"uint256","name":"_propostaId","type":"uint256"}],"name":"votacaoAberta","outputs":[{"internalType":"bool","name":"","type":"bool"}],"stateMutability":"view","type":"function"},{"inputs":[{"internalType":"uint256","name":"_propostaId","type":"uint256"},{"internalType":"bool","name":"_aFavor","type":"bool"}],"name":"votar","outputs":[],"stateMutability":"nonpayable","type":"function"}],"evm":{"bytecode":{"linkReferences":{},"object":"60806040526203f480600255600a60035534801561001b575f80fd5b506040516112b33803806112b383398101604081905261003a91610134565b338061006057604051631e4fbdf760e01b81525f60048201526024015b60405180910390fd5b610069816100e5565b506001600160a01b0381166100c05760405162461bcd60e51b815260206004820152601a60248201527f456e64657265636f20646f20746f6b656e20696e76616c69646f0000000000006044820152606401610057565b600180546001600160a01b0319166001600160a01b0392909216919091179055610161565b5f80546001600160a01b038381166001600160a01b0319831681178455604051919092169283917f8be0079c531659141344cd1fd0a4f28419497f9722a3daafe3b4186f6b6457e09190a35050565b5f60208284031215610144575f80fd5b81516001600160a01b038116811461015a575f80fd5b9392505050565b6111458061016e5f395ff3fe608060405234801561000f575f80fd5b50600436106100fb575f3560e01c8063724e055611610093578063a20e9f1311610063578063a20e9f1314610211578063bda5993114610224578063f2fde38b1461022d578063f3d33f7c14610240575f80fd5b8063724e0556146101d257806384a8af29146101db5780638da5cb5b146101ee57806396180dd6146101fe575f80fd5b806350adcdb7116100ce57806350adcdb71461016657806358c57138146101915780636f4777be146101b7578063715018a6146101ca575f80fd5b80630be894de146100ff5780632024e98c1461011457806328962d4e1461013c5780634556f0131461014f575b5f80fd5b61011261010d366004610d30565b61026d565b005b610127610122366004610d30565b6102cd565b60405190151581526020015b60405180910390f35b61011261014a366004610d47565b610305565b61015860045481565b604051908152602001610133565b600154610179906001600160a01b031681565b6040516001600160a01b039091168152602001610133565b6101a461019f366004610d30565b610570565b6040516101339796959493929190610da7565b6101a46101c5366004610d30565b6106bd565b61011261078d565b61015860025481565b6101126101e9366004610d30565b6107a0565b5f546001600160a01b0316610179565b61015861020c366004610e0b565b6109ca565b61011261021f366004610d30565b610c1c565b61015860035481565b61011261023b366004610ed9565b610c78565b61012761024e366004610ef9565b600660209081525f928352604080842090915290825290205460ff1681565b610275610cb5565b5f81118015610285575060648111155b6102c85760405162461bcd60e51b815260206004820152600f60248201526e51756f72756d20696e76616c69646f60881b60448201526064015b60405180910390fd5b600355565b5f8181526005602052604081206004015442118015906102ff57505f828152600560208190526040909120015460ff16155b92915050565b5f828152600560205260409020600481015442111561035a5760405162461bcd60e51b8152602060048201526011602482015270566f746163616f20656e6365727261646160781b60448201526064016102bf565b600581015460ff16156103a75760405162461bcd60e51b815260206004820152601560248201527450726f706f737461206a612065786563757461646160581b60448201526064016102bf565b5f83815260066020908152604080832033845290915290205460ff16156104105760405162461bcd60e51b815260206004820152601760248201527f4a6120766f746f75206e657374612070726f706f73746100000000000000000060448201526064016102bf565b6001546040516370a0823160e01b81523360048201525f916001600160a01b0316906370a0823190602401602060405180830381865afa158015610456573d5f803e3d5ffd5b505050506040513d601f19601f8201168201806040525081019061047a9190610f23565b90505f81116104cb5760405162461bcd60e51b815260206004820152601d60248201527f507265636973612074657220746f6b656e73207061726120766f74617200000060448201526064016102bf565b5f8481526006602090815260408083203384529091529020805460ff1916600117905582156105125780826002015f8282546105079190610f4e565b9091555061052b9050565b80826003015f8282546105259190610f4e565b90915550505b60408051841515815260208101839052339186917f5c444d0b5fa63c33f98d28062068994007eeeb8b1bd6bf13944fb8540e154db6910160405180910390a350505050565b60605f805f805f805f60055f8a81526020019081526020015f206040518060e00160405290815f820180546105a490610f61565b80601f01602080910402602001604051908101604052809291908181526020018280546105d090610f61565b801561061b5780601f106105f25761010080835404028352916020019161061b565b820191905f5260205f20905b8154815290600101906020018083116105fe57829003601f168201915b505050918352505060018201546001600160a01b031660208083019190915260028301546040808401919091526003840154606080850191909152600485015460808086019190915260059095015460ff808216151560a08088019190915261010090920416151560c095860152865193870151928701519187015195870151908701519690940151929f919e509c50929a5090985091965090945092505050565b60056020525f90815260409020805481906106d790610f61565b80601f016020809104026020016040519081016040528092919081815260200182805461070390610f61565b801561074e5780601f106107255761010080835404028352916020019161074e565b820191905f5260205f20905b81548152906001019060200180831161073157829003601f168201915b505050600184015460028501546003860154600487015460059097015495966001600160a01b0390931695919450925060ff8082169161010090041687565b610795610cb5565b61079e5f610ce1565b565b6107a8610cb5565b5f818152600560205260409020600481015442116108085760405162461bcd60e51b815260206004820152601a60248201527f566f746163616f2061696e646120656d20616e64616d656e746f00000000000060448201526064016102bf565b600581015460ff16156108555760405162461bcd60e51b815260206004820152601560248201527450726f706f737461206a612065786563757461646160581b60448201526064016102bf565b5f8160030154826002015461086a9190610f4e565b90505f60015f9054906101000a90046001600160a01b03166001600160a01b03166318160ddd6040518163ffffffff1660e01b8152600401602060405180830381865afa1580156108bd573d5f803e3d5ffd5b505050506040513d601f19601f820116820180604052508101906108e19190610f23565b90505f816108f0846064610f99565b6108fa9190610fb0565b905060035481101561094e5760405162461bcd60e51b815260206004820152601a60248201527f51756f72756d206d696e696d6f206e616f206174696e6769646f00000000000060448201526064016102bf565b60058401805460ff1916600117905560038401546002850154111561097f5760058401805461ff0019166101001790555b600584015460405161010090910460ff161515815285907f29b0c4e872c8cbc8af2283fdde16f2e8af08fd63d6fe9480c03a94c1d7c1c34c9060200160405180910390a25050505050565b6001546040516370a0823160e01b81523360048201525f9182916001600160a01b03909116906370a0823190602401602060405180830381865afa158015610a14573d5f803e3d5ffd5b505050506040513d601f19601f82011682018060405250810190610a389190610f23565b11610a945760405162461bcd60e51b815260206004820152602660248201527f507265636973612074657220746f6b656e7320706172612063726961722070726044820152656f706f73746160d01b60648201526084016102bf565b5f825111610ad65760405162461bcd60e51b815260206004820152600f60248201526e44657363726963616f2076617a696160881b60448201526064016102bf565b600480549081905f610ae783610fcf565b91905055506040518060e00160405280848152602001336001600160a01b031681526020015f81526020015f815260200160025442610b269190610f4e565b81525f60208083018290526040928301829052848252600590522081518190610b4f9082611033565b5060208201516001820180546001600160a01b0319166001600160a01b039092169190911790556040820151600280830191909155606083015160038301556080830151600483015560a08301516005909201805460c09094015161ffff1990941692151561ff001916929092176101009315159390930292909217905554339082907fa4012a3e2ed2a0a1fc40f62ff3eb1302d6b9e2b4acf44723a3379dcc3cd56491908690610c009042610f4e565b604051610c0e9291906110ee565b60405180910390a392915050565b610c24610cb5565b5f8111610c735760405162461bcd60e51b815260206004820152601f60248201527f4475726163616f206465766520736572206d61696f7220717565207a65726f0060448201526064016102bf565b600255565b610c80610cb5565b6001600160a01b038116610ca957604051631e4fbdf760e01b81525f60048201526024016102bf565b610cb281610ce1565b50565b5f546001600160a01b0316331461079e5760405163118cdaa760e01b81523360048201526024016102bf565b5f80546001600160a01b038381166001600160a01b0319831681178455604051919092169283917f8be0079c531659141344cd1fd0a4f28419497f9722a3daafe3b4186f6b6457e09190a35050565b5f60208284031215610d40575f80fd5b5035919050565b5f8060408385031215610d58575f80fd5b8235915060208301358015158114610d6e575f80fd5b809150509250929050565b5f81518084528060208401602086015e5f602082860101526020601f19601f83011685010191505092915050565b60e081525f610db960e083018a610d79565b6001600160a01b0398909816602083015250604081019590955260608501939093526080840191909152151560a0830152151560c090910152919050565b634e487b7160e01b5f52604160045260245ffd5b5f60208284031215610e1b575f80fd5b813567ffffffffffffffff811115610e31575f80fd5b8201601f81018413610e41575f80fd5b803567ffffffffffffffff811115610e5b57610e5b610df7565b604051601f8201601f19908116603f0116810167ffffffffffffffff81118282101715610e8a57610e8a610df7565b604052818152828201602001861015610ea1575f80fd5b816020840160208301375f91810160200191909152949350505050565b80356001600160a01b0381168114610ed4575f80fd5b919050565b5f60208284031215610ee9575f80fd5b610ef282610ebe565b9392505050565b5f8060408385031215610f0a575f80fd5b82359150610f1a60208401610ebe565b90509250929050565b5f60208284031215610f33575f80fd5b5051919050565b634e487b7160e01b5f52601160045260245ffd5b808201808211156102ff576102ff610f3a565b600181811c90821680610f7557607f821691505b602082108103610f9357634e487b7160e01b5f52602260045260245ffd5b50919050565b80820281158282048414176102ff576102ff610f3a565b5f82610fca57634e487b7160e01b5f52601260045260245ffd5b500490565b5f60018201610fe057610fe0610f3a565b5060010190565b601f82111561102e57805f5260205f20601f840160051c8101602085101561100c5750805b601f840160051c820191505b8181101561102b575f8155600101611018565b50505b505050565b815167ffffffffffffffff81111561104d5761104d610df7565b6110618161105b8454610f61565b84610fe7565b6020601f821160018114611093575f831561107c5750848201515b5f19600385901b1c1916600184901b17845561102b565b5f84815260208120601f198516915b828110156110c257878501518255602094850194600190920191016110a2565b50848210156110df57868401515f19600387901b60f8161c191681555b50505050600190811b01905550565b604081525f6111006040830185610d79565b9050826020830152939250505056fea26469706673582212207d49ac9562b0d47ac6159222330b886fb9ee2464aeb9bbcd23db5bc90c80e23d64736f6c634300081a0033","opcodes":"PUSH1 0x80 PUSH1 0x40 MSTORE PUSH3 0x3F480 PUSH1 0x2 SSTORE PUSH1 0xA PUSH1 0x3 SSTORE CALLVALUE DUP1 ISZERO PUSH2 0x1B JUMPI PUSH0 DUP1 REVERT JUMPDEST POP PUSH1 0x40 MLOAD PUSH2 0x12B3 CODESIZE SUB DUP1 PUSH2 0x12B3 DUP4 CODECOPY DUP2 ADD PUSH1 0x40 DUP2 SWAP1 MSTORE PUSH2 0x3A SWAP2 PUSH2 0x134 JUMP JUMPDEST CALLER DUP1 PUSH2 0x60 JUMPI PUSH1 0x40 MLOAD PUSH4 0x1E4FBDF7 PUSH1 0xE0 SHL DUP2 MSTORE PUSH0 PUSH1 0x4 DUP3 ADD MSTORE PUSH1 0x24 ADD JUMPDEST PUSH1 0x40 MLOAD DUP1 SWAP2 SUB SWAP1 REVERT JUMPDEST PUSH2 0x69 DUP2 PUSH2 0xE5 JUMP JUMPDEST POP PUSH1 0x1 PUSH1 0x1 PUSH1 0xA0 SHL SUB DUP2 AND PUSH2 0xC0 JUMPI PUSH1 0x40 MLOAD PUSH3 0x461BCD PUSH1 0xE5 SHL DUP2 MSTORE PUSH1 0x20 PUSH1 0x4 DUP3 ADD MSTORE PUSH1 0x1A PUSH1 0x24 DUP3 ADD MSTORE PUSH32 0x456E64657265636F20646F20746F6B656E20696E76616C69646F000000000000 PUSH1 0x44 DUP3 ADD MSTORE PUSH1 0x64 ADD PUSH2 0x57 JUMP JUMPDEST PUSH1 0x1 DUP1 SLOAD PUSH1 0x1 PUSH1 0x1 PUSH1 0xA0 SHL SUB NOT AND PUSH1 0x1 PUSH1 0x1 PUSH1 0xA0 SHL SUB SWAP3 SWAP1 SWAP3 AND SWAP2 SWAP1 SWAP2 OR SWAP1 SSTORE PUSH2 0x161 JUMP JUMPDEST PUSH0 DUP1 SLOAD PUSH1 0x1 PUSH1 0x1 PUSH1 0xA0 SHL SUB DUP4 DUP2 AND PUSH1 0x1 PUSH1 0x1 PUSH1 0xA0 SHL SUB NOT DUP4 AND DUP2 OR DUP5 SSTORE PUSH1 0x40 MLOAD SWAP2 SWAP1 SWAP3 AND SWAP3 DUP4 SWAP2 PUSH32 0x8BE0079C531659141344CD1FD0A4F28419497F9722A3DAAFE3B4186F6B6457E0 SWAP2 SWAP1 LOG3 POP POP JUMP JUMPDEST PUSH0 PUSH1 0x20 DUP3 DUP5 SUB SLT ISZERO PUSH2 0x144 JUMPI PUSH0 DUP1 REVERT JUMPDEST DUP2 MLOAD PUSH1 0x1 PUSH1 0x1 PUSH1 0xA0 SHL SUB DUP2 AND DUP2 EQ PUSH2 0x15A JUMPI PUSH0 DUP1 REVERT JUMPDEST SWAP4 SWAP3 POP POP POP JUMP JUMPDEST PUSH2 0x1145 DUP1 PUSH2 0x16E PUSH0 CODECOPY PUSH0 RETURN INVALID PUSH1 0x80 PUSH1 0x40 MSTORE CALLVALUE DUP1 ISZERO PUSH2 0xF JUMPI PUSH0 DUP1 REVERT JUMPDEST POP PUSH1 0x4 CALLDATASIZE LT PUSH2 0xFB JUMPI PUSH0 CALLDATALOAD PUSH1 0xE0 SHR DUP1 PUSH4 0x724E0556 GT PUSH2 0x93 JUMPI DUP1 PUSH4 0xA20E9F13 GT PUSH2 0x63 JUMPI DUP1 PUSH4 0xA20E9F13 EQ PUSH2 0x211 JUMPI DUP1 PUSH4 0xBDA59931 EQ PUSH2 0x224 JUMPI DUP1 PUSH4 0xF2FDE38B EQ PUSH2 0x22D JUMPI DUP1 PUSH4 0xF3D33F7C EQ PUSH2 0x240 JUMPI PUSH0 DUP1 REVERT JUMPDEST DUP1 PUSH4 0x724E0556 EQ PUSH2 0x1D2 JUMPI DUP1 PUSH4 0x84A8AF29 EQ PUSH2 0x1DB JUMPI DUP1 PUSH4 0x8DA5CB5B EQ PUSH2 0x1EE JUMPI DUP1 PUSH4 0x96180DD6 EQ PUSH2 0x1FE JUMPI PUSH0 DUP1 REVERT JUMPDEST DUP1 PUSH4 0x50ADCDB7 GT PUSH2 0xCE JUMPI DUP1 PUSH4 0x50ADCDB7 EQ PUSH2 0x166 JUMPI DUP1 PUSH4 0x58C57138 EQ PUSH2 0x191 JUMPI DUP1 PUSH4 0x6F4777BE EQ PUSH2 0x1B7 JUMPI DUP1 PUSH4 0x715018A6 EQ PUSH2 0x1CA JUMPI PUSH0 DUP1 REVERT JUMPDEST DUP1 PUSH4 0xBE894DE EQ PUSH2 0xFF JUMPI DUP1 PUSH4 0x2024E98C EQ PUSH2 0x114 JUMPI DUP1 PUSH4 0x28962D4E EQ PUSH2 0x13C JUMPI DUP1 PUSH4 0x4556F013 EQ PUSH2 0x14F JUMPI JUMPDEST PUSH0 DUP1 REVERT JUMPDEST PUSH2 0x112 PUSH2 0x10D CALLDATASIZE PUSH1 0x4 PUSH2 0xD30 JUMP JUMPDEST PUSH2 0x26D JUMP JUMPDEST STOP JUMPDEST PUSH2 0x127 PUSH2 0x122 CALLDATASIZE PUSH1 0x4 PUSH2 0xD30 JUMP JUMPDEST PUSH2 0x2CD JUMP JUMPDEST PUSH1 0x40 MLOAD SWAP1 ISZERO ISZERO DUP2 MSTORE PUSH1 0x20 ADD JUMPDEST PUSH1 0x40 MLOAD DUP1 SWAP2 SUB SWAP1 RETURN JUMPDEST PUSH2 0x112 PUSH2 0x14A CALLDATASIZE PUSH1 0x4 PUSH2 0xD47 JUMP JUMPDEST PUSH2 0x305 JUMP JUMPDEST PUSH2 0x158 PUSH1 0x4 SLOAD DUP2 JUMP JUMPDEST PUSH1 0x40 MLOAD SWAP1 DUP2 MSTORE PUSH1 0x20 ADD PUSH2 0x133 JUMP JUMPDEST PUSH1 0x1 SLOAD PUSH2 0x179 SWAP1 PUSH1 0x1 PUSH1 0x1 PUSH1 0xA0 SHL SUB AND DUP2 JUMP JUMPDEST PUSH1 0x40 MLOAD PUSH1 0x1 PUSH1 0x1 PUSH1 0xA0 SHL SUB SWAP1 SWAP2 AND DUP2 MSTORE PUSH1 0x20 ADD PUSH2 0x133 JUMP JUMPDEST PUSH2 0x1A4 PUSH2 0x19F CALLDATASIZE PUSH1 0x4 PUSH2 0xD30 JUMP JUMPDEST PUSH2 0x570 JUMP JUMPDEST PUSH1 0x40 MLOAD PUSH2 0x133 SWAP8 SWAP7 SWAP6 SWAP5 SWAP4 SWAP3 SWAP2 SWAP1 PUSH2 0xDA7 JUMP JUMPDEST PUSH2 0x1A4 PUSH2 0x1C5 CALLDATASIZE PUSH1 0x4 PUSH2 0xD30 JUMP JUMPDEST PUSH2 0x6BD JUMP JUMPDEST PUSH2 0x112 PUSH2 0x78D JUMP JUMPDEST PUSH2 0x158 PUSH1 0x2 SLOAD DUP2 JUMP JUMPDEST PUSH2 0x112 PUSH2 0x1E9 CALLDATASIZE PUSH1 0x4 PUSH2 0xD30 JUMP JUMPDEST PUSH2 0x7A0 JUMP JUMPDEST PUSH0 SLOAD PUSH1 0x1 PUSH1 0x1 PUSH1 0xA0 SHL SUB AND PUSH2 0x179 JUMP JUMPDEST PUSH2 0x158 PUSH2 0x20C CALLDATASIZE PUSH1 0x4 PUSH2 0xE0B JUMP JUMPDEST PUSH2 0x9CA JUMP JUMPDEST PUSH2 0x112 PUSH2 0x21F CALLDATASIZE PUSH1 0x4 PUSH2 0xD30 JUMP JUMPDEST PUSH2 0xC1C JUMP JUMPDEST PUSH2 0x158 PUSH1 0x3 SLOAD DUP2 JUMP JUMPDEST PUSH2 0x112 PUSH2 0x23B CALLDATASIZE PUSH1 0x4 PUSH2 0xED9 JUMP JUMPDEST PUSH2 0xC78 JUMP JUMPDEST PUSH2 0x127 PUSH2 0x24E CALLDATASIZE PUSH1 0x4 PUSH2 0xEF9 JUMP JUMPDEST PUSH1 0x6 PUSH1 0x20 SWAP1 DUP2 MSTORE PUSH0 SWAP3 DUP4 MSTORE PUSH1 0x40 DUP1 DUP5 KECCAK256 SWAP1 SWAP2 MSTORE SWAP1 DUP3 MSTORE SWAP1 KECCAK256 SLOAD PUSH1 0xFF AND DUP2 JUMP JUMPDEST PUSH2 0x275 PUSH2 0xCB5 JUMP JUMPDEST PUSH0 DUP2 GT DUP1 ISZERO PUSH2 0x285 JUMPI POP PUSH1 0x64 DUP2 GT ISZERO JUMPDEST PUSH2 0x2C8 JUMPI PUSH1 0x40 MLOAD PUSH3 0x461BCD PUSH1 0xE5 SHL DUP2 MSTORE PUSH1 0x20 PUSH1 0x4 DUP3 ADD MSTORE PUSH1 0xF PUSH1 0x24 DUP3 ADD MSTORE PUSH15 0x51756F72756D20696E76616C69646F PUSH1 0x88 SHL PUSH1 0x44 DUP3 ADD MSTORE PUSH1 0x64 ADD JUMPDEST PUSH1 0x40 MLOAD DUP1 SWAP2 SUB SWAP1 REVERT JUMPDEST PUSH1 0x3 SSTORE JUMP JUMPDEST PUSH0 DUP2 DUP2 MSTORE PUSH1 0x5 PUSH1 0x20 MSTORE PUSH1 0x40 DUP2 KECCAK256 PUSH1 0x4 ADD SLOAD TIMESTAMP GT DUP1 ISZERO SWAP1 PUSH2 0x2FF JUMPI POP PUSH0 DUP3 DUP2 MSTORE PUSH1 0x5 PUSH1 0x20 DUP2 SWAP1 MSTORE PUSH1 0x40 SWAP1 SWAP2 KECCAK256 ADD SLOAD PUSH1 0xFF AND ISZERO JUMPDEST SWAP3 SWAP2 POP POP JUMP JUMPDEST PUSH0 DUP3 DUP2 MSTORE PUSH1 0x5 PUSH1 0x20 MSTORE PUSH1 0x40 SWAP1 KECCAK256 PUSH1 0x4 DUP2 ADD SLOAD TIMESTAMP GT ISZERO PUSH2 0x35A JUMPI PUSH1 0x40 MLOAD PUSH3 0x461BCD PUSH1 0xE5 SHL DUP2 MSTORE PUSH1 0x20 PUSH1 0x4 DUP3 ADD MSTORE PUSH1 0x11 PUSH1 0x24 DUP3 ADD MSTORE PUSH17 0x566F746163616F20656E63657272616461 PUSH1 0x78 SHL PUSH1 0x44 DUP3 ADD MSTORE PUSH1 0x64 ADD PUSH2 0x2BF JUMP JUMPDEST PUSH1 0x5 DUP2 ADD SLOAD PUSH1 0xFF AND ISZERO PUSH2 0x3A7 JUMPI PUSH1 0x40 MLOAD PUSH3 0x461BCD PUSH1 0xE5 SHL DUP2 MSTORE PUSH1 0x20 PUSH1 0x4 DUP3 ADD MSTORE PUSH1 0x15 PUSH1 0x24 DUP3 ADD MSTORE PUSH21 0x50726F706F737461206A6120657865637574616461 PUSH1 0x58 SHL PUSH1 0x44 DUP3 ADD MSTORE PUSH1 0x64 ADD PUSH2 0x2BF JUMP JUMPDEST PUSH0 DUP4 DUP2 MSTORE PUSH1 0x6 PUSH1 0x20 SWAP1 DUP2 MSTORE PUSH1 0x40 DUP1 DUP4 KECCAK256 CALLER DUP5 MSTORE SWAP1 SWAP2 MSTORE SWAP1 KECCAK256 SLOAD PUSH1 0xFF AND ISZERO PUSH2 0x410 JUMPI PUSH1 0x40 MLOAD PUSH3 0x461BCD PUSH1 0xE5 SHL DUP2 MSTORE PUSH1 0x20 PUSH1 0x4 DUP3 ADD MSTORE PUSH1 0x17 PUSH1 0x24 DUP3 ADD MSTORE PUSH32 0x4A6120766F746F75206E657374612070726F706F737461000000000000000000 PUSH1 0x44 DUP3 ADD MSTORE PUSH1 0x64 ADD PUSH2 0x2BF JUMP JUMPDEST PUSH1 0x1 SLOAD PUSH1 0x40 MLOAD PUSH4 0x70A08231 PUSH1 0xE0 SHL DUP2 MSTORE CALLER PUSH1 0x4 DUP3 ADD MSTORE PUSH0 SWAP2 PUSH1 0x1 PUSH1 0x1 PUSH1 0xA0 SHL SUB AND SWAP1 PUSH4 0x70A08231 SWAP1 PUSH1 0x24 ADD PUSH1 0x20 PUSH1 0x40 MLOAD DUP1 DUP4 SUB DUP2 DUP7 GAS STATICCALL ISZERO DUP1 ISZERO PUSH2 0x456 JUMPI RETURNDATASIZE PUSH0 DUP1 RETURNDATACOPY RETURNDATASIZE PUSH0 REVERT JUMPDEST POP POP POP POP PUSH1 0x40 MLOAD RETURNDATASIZE PUSH1 0x1F NOT PUSH1 0x1F DUP3 ADD AND DUP3 ADD DUP1 PUSH1 0x40 MSTORE POP DUP2 ADD SWAP1 PUSH2 0x47A SWAP2 SWAP1 PUSH2 0xF23 JUMP JUMPDEST SWAP1 POP PUSH0 DUP2 GT PUSH2 0x4CB JUMPI PUSH1 0x40 MLOAD PUSH3 0x461BCD PUSH1 0xE5 SHL DUP2 MSTORE PUSH1 0x20 PUSH1 0x4 DUP3 ADD MSTORE PUSH1 0x1D PUSH1 0x24 DUP3 ADD MSTORE PUSH32 0x507265636973612074657220746F6B656E73207061726120766F746172000000 PUSH1 0x44 DUP3 ADD MSTORE PUSH1 0x64 ADD PUSH2 0x2BF JUMP JUMPDEST PUSH0 DUP5 DUP2 MSTORE PUSH1 0x6 PUSH1 0x20 SWAP1 DUP2 MSTORE PUSH1 0x40 DUP1 DUP4 KECCAK256 CALLER DUP5 MSTORE SWAP1 SWAP2 MSTORE SWAP1 KECCAK256 DUP1 SLOAD PUSH1 0xFF NOT AND PUSH1 0x1 OR SWAP1 SSTORE DUP3 ISZERO PUSH2 0x512 JUMPI DUP1 DUP3 PUSH1 0x2 ADD PUSH0 DUP3 DUP3 SLOAD PUSH2 0x507 SWAP2 SWAP1 PUSH2 0xF4E JUMP JUMPDEST SWAP1 SWAP2 SSTORE POP PUSH2 0x52B SWAP1 POP JUMP JUMPDEST DUP1 DUP3 PUSH1 0x3 ADD PUSH0 DUP3 DUP3 SLOAD PUSH2 0x525 SWAP2 SWAP1 PUSH2 0xF4E JUMP JUMPDEST SWAP1 SWAP2 SSTORE POP POP JUMPDEST PUSH1 0x40 DUP1 MLOAD DUP5 ISZERO ISZERO DUP2 MSTORE PUSH1 0x20 DUP2 ADD DUP4 SWAP1 MSTORE CALLER SWAP2 DUP7 SWAP2 PUSH32 0x5C444D0B5FA63C33F98D28062068994007EEEB8B1BD6BF13944FB8540E154DB6 SWAP2 ADD PUSH1 0x40 MLOAD DUP1 SWAP2 SUB SWAP1 LOG3 POP POP POP POP JUMP JUMPDEST PUSH1 0x60 PUSH0 DUP1 PUSH0 DUP1 PUSH0 DUP1 PUSH0 PUSH1 0x5 PUSH0 DUP11 DUP2 MSTORE PUSH1 0x20 ADD SWAP1 DUP2 MSTORE PUSH1 0x20 ADD PUSH0 KECCAK256 PUSH1 0x40 MLOAD DUP1 PUSH1 0xE0 ADD PUSH1 0x40 MSTORE SWAP1 DUP2 PUSH0 DUP3 ADD DUP1 SLOAD PUSH2 0x5A4 SWAP1 PUSH2 0xF61 JUMP JUMPDEST DUP1 PUSH1 0x1F ADD PUSH1 0x20 DUP1 SWAP2 DIV MUL PUSH1 0x20 ADD PUSH1 0x40 MLOAD SWAP1 DUP2 ADD PUSH1 0x40 MSTORE DUP1 SWAP3 SWAP2 SWAP1 DUP2 DUP2 MSTORE PUSH1 0x20 ADD DUP3 DUP1 SLOAD PUSH2 0x5D0 SWAP1 PUSH2 0xF61 JUMP JUMPDEST DUP1 ISZERO PUSH2 0x61B JUMPI DUP1 PUSH1 0x1F LT PUSH2 0x5F2 JUMPI PUSH2 0x100 DUP1 DUP4 SLOAD DIV MUL DUP4 MSTORE SWAP2 PUSH1 0x20 ADD SWAP2 PUSH2 0x61B JUMP JUMPDEST DUP3 ADD SWAP2 SWAP1 PUSH0 MSTORE PUSH1 0x20 PUSH0 KECCAK256 SWAP1 JUMPDEST DUP2 SLOAD DUP2 MSTORE SWAP1 PUSH1 0x1 ADD SWAP1 PUSH1 0x20 ADD DUP1 DUP4 GT PUSH2 0x5FE JUMPI DUP3 SWAP1 SUB PUSH1 0x1F AND DUP3 ADD SWAP2 JUMPDEST POP POP POP SWAP2 DUP4 MSTORE POP POP PUSH1 0x1 DUP3 ADD SLOAD PUSH1 0x1 PUSH1 0x1 PUSH1 0xA0 SHL SUB AND PUSH1 0x20 DUP1 DUP4 ADD SWAP2 SWAP1 SWAP2 MSTORE PUSH1 0x2 DUP4 ADD SLOAD PUSH1 0x40 DUP1 DUP5 ADD SWAP2 SWAP1 SWAP2 MSTORE PUSH1 0x3 DUP5 ADD SLOAD PUSH1 0x60 DUP1 DUP6 ADD SWAP2 SWAP1 SWAP2 MSTORE PUSH1 0x4 DUP6 ADD SLOAD PUSH1 0x80 DUP1 DUP7 ADD SWAP2 SWAP1 SWAP2 MSTORE PUSH1 0x5 SWAP1 SWAP6 ADD SLOAD PUSH1 0xFF DUP1 DUP3 AND ISZERO ISZERO PUSH1 0xA0 DUP1 DUP9 ADD SWAP2 SWAP1 SWAP2 MSTORE PUSH2 0x100 SWAP1 SWAP3 DIV AND ISZERO ISZERO PUSH1 0xC0 SWAP6 DUP7 ADD MSTORE DUP7 MLOAD SWAP4 DUP8 ADD MLOAD SWAP3 DUP8 ADD MLOAD SWAP2 DUP8 ADD MLOAD SWAP6 DUP8 ADD MLOAD SWAP1 DUP8 ADD MLOAD SWAP7 SWAP1 SWAP5 ADD MLOAD SWAP3 SWAP16 SWAP2 SWAP15 POP SWAP13 POP SWAP3 SWAP11 POP SWAP1 SWAP9 POP SWAP2 SWAP7 POP SWAP1 SWAP5 POP SWAP3 POP POP POP JUMP JUMPDEST PUSH1 0x5 PUSH1 0x20 MSTORE PUSH0 SWAP1 DUP2 MSTORE PUSH1 0x40 SWAP1 KECCAK256 DUP1 SLOAD DUP2 SWAP1 PUSH2 0x6D7 SWAP1 PUSH2 0xF61 JUMP JUMPDEST DUP1 PUSH1 0x1F ADD PUSH1 0x20 DUP1 SWAP2 DIV MUL PUSH1 0x20 ADD PUSH1 0x40 MLOAD SWAP1 DUP2 ADD PUSH1 0x40 MSTORE DUP1 SWAP3 SWAP2 SWAP1 DUP2 DUP2 MSTORE PUSH1 0x20 ADD DUP3 DUP1 SLOAD PUSH2 0x703 SWAP1 PUSH2 0xF61 JUMP JUMPDEST DUP1 ISZERO PUSH2 0x74E JUMPI DUP1 PUSH1 0x1F LT PUSH2 0x725 JUMPI PUSH2 0x100 DUP1 DUP4 SLOAD DIV MUL DUP4 MSTORE SWAP2 PUSH1 0x20 ADD SWAP2 PUSH2 0x74E JUMP JUMPDEST DUP3 ADD SWAP2 SWAP1 PUSH0 MSTORE PUSH1 0x20 PUSH0 KECCAK256 SWAP1 JUMPDEST DUP2 SLOAD DUP2 MSTORE SWAP1 PUSH1 0x1 ADD SWAP1 PUSH1 0x20 ADD DUP1 DUP4 GT PUSH2 0x731 JUMPI DUP3 SWAP1 SUB PUSH1 0x1F AND DUP3 ADD SWAP2 JUMPDEST POP POP POP PUSH1 0x1 DUP5 ADD SLOAD PUSH1 0x2 DUP6 ADD SLOAD PUSH1 0x3 DUP7 ADD SLOAD PUSH1 0x4 DUP8 ADD SLOAD PUSH1 0x5 SWAP1 SWAP8 ADD SLOAD SWAP6 SWAP7 PUSH1 0x1 PUSH1 0x1 PUSH1 0xA0 SHL SUB SWAP1 SWAP4 AND SWAP6 SWAP2 SWAP5 POP SWAP3 POP PUSH1 0xFF DUP1 DUP3 AND SWAP2 PUSH2 0x100 SWAP1 DIV AND DUP8 JUMP JUMPDEST PUSH2 0x795 PUSH2 0xCB5 JUMP JUMPDEST PUSH2 0x79E PUSH0 PUSH2 0xCE1 JUMP JUMPDEST JUMP JUMPDEST PUSH2 0x7A8 PUSH2 0xCB5 JUMP JUMPDEST PUSH0 DUP2 DUP2 MSTORE PUSH1 0x5 PUSH1 0x20 MSTORE PUSH1 0x40 SWAP1 KECCAK256 PUSH1 0x4 DUP2 ADD SLOAD TIMESTAMP GT PUSH2 0x808 JUMPI PUSH1 0x40 MLOAD PUSH3 0x461BCD PUSH1 0xE5 SHL DUP2 MSTORE PUSH1 0x20 PUSH1 0x4 DUP3 ADD MSTORE PUSH1 0x1A PUSH1 0x24 DUP3 ADD MSTORE PUSH32 0x566F746163616F2061696E646120656D20616E64616D656E746F000000000000 PUSH1 0x44 DUP3 ADD MSTORE PUSH1 0x64 ADD PUSH2 0x2BF JUMP JUMPDEST PUSH1 0x5 DUP2 ADD SLOAD PUSH1 0xFF AND ISZERO PUSH2 0x855 JUMPI PUSH1 0x40 MLOAD PUSH3 0x461BCD PUSH1 0xE5 SHL DUP2 MSTORE PUSH1 0x20 PUSH1 0x4 DUP3 ADD MSTORE PUSH1 0x15 PUSH1 0x24 DUP3 ADD MSTORE PUSH21 0x50726F706F737461206A6120657865637574616461 PUSH1 0x58 SHL PUSH1 0x44 DUP3 ADD MSTORE PUSH1 0x64 ADD PUSH2 0x2BF JUMP JUMPDEST PUSH0 DUP2 PUSH1 0x3 ADD SLOAD DUP3 PUSH1 0x2 ADD SLOAD PUSH2 0x86A SWAP2 SWAP1 PUSH2 0xF4E JUMP JUMPDEST SWAP1 POP PUSH0 PUSH1 0x1 PUSH0 SWAP1 SLOAD SWAP1 PUSH2 0x100 EXP SWAP1 DIV PUSH1 0x1 PUSH1 0x1 PUSH1 0xA0 SHL SUB AND PUSH1 0x1 PUSH1 0x1 PUSH1 0xA0 SHL SUB AND PUSH4 0x18160DDD PUSH1 0x40 MLOAD DUP2 PUSH4 0xFFFFFFFF AND PUSH1 0xE0 SHL DUP2 MSTORE PUSH1 0x4 ADD PUSH1 0x20 PUSH1 0x40 MLOAD DUP1 DUP4 SUB DUP2 DUP7 GAS STATICCALL ISZERO DUP1 ISZERO PUSH2 0x8BD JUMPI RETURNDATASIZE PUSH0 DUP1 RETURNDATACOPY RETURNDATASIZE PUSH0 REVERT JUMPDEST POP POP POP POP PUSH1 0x40 MLOAD RETURNDATASIZE PUSH1 0x1F NOT PUSH1 0x1F DUP3 ADD AND DUP3 ADD DUP1 PUSH1 0x40 MSTORE POP DUP2 ADD SWAP1 PUSH2 0x8E1 SWAP2 SWAP1 PUSH2 0xF23 JUMP JUMPDEST SWAP1 POP PUSH0 DUP2 PUSH2 0x8F0 DUP5 PUSH1 0x64 PUSH2 0xF99 JUMP JUMPDEST PUSH2 0x8FA SWAP2 SWAP1 PUSH2 0xFB0 JUMP JUMPDEST SWAP1 POP PUSH1 0x3 SLOAD DUP2 LT ISZERO PUSH2 0x94E JUMPI PUSH1 0x40 MLOAD PUSH3 0x461BCD PUSH1 0xE5 SHL DUP2 MSTORE PUSH1 0x20 PUSH1 0x4 DUP3 ADD MSTORE PUSH1 0x1A PUSH1 0x24 DUP3 ADD MSTORE PUSH32 0x51756F72756D206D696E696D6F206E616F206174696E6769646F000000000000 PUSH1 0x44 DUP3 ADD MSTORE PUSH1 0x64 ADD PUSH2 0x2BF JUMP JUMPDEST PUSH1 0x5 DUP5 ADD DUP1 SLOAD PUSH1 0xFF NOT AND PUSH1 0x1 OR SWAP1 SSTORE PUSH1 0x3 DUP5 ADD SLOAD PUSH1 0x2 DUP6 ADD SLOAD GT ISZERO PUSH2 0x97F JUMPI PUSH1 0x5 DUP5 ADD DUP1 SLOAD PUSH2 0xFF00 NOT AND PUSH2 0x100 OR SWAP1 SSTORE JUMPDEST PUSH1 0x5 DUP5 ADD SLOAD PUSH1 0x40 MLOAD PUSH2 0x100 SWAP1 SWAP2 DIV PUSH1 0xFF AND ISZERO ISZERO DUP2 MSTORE DUP6 SWAP1 PUSH32 0x29B0C4E872C8CBC8AF2283FDDE16F2E8AF08FD63D6FE9480C03A94C1D7C1C34C SWAP1 PUSH1 0x20 ADD PUSH1 0x40 MLOAD DUP1 SWAP2 SUB SWAP1 LOG2 POP POP POP POP POP JUMP JUMPDEST PUSH1 0x1 SLOAD PUSH1 0x40 MLOAD PUSH4 0x70A08231 PUSH1 0xE0 SHL DUP2 MSTORE CALLER PUSH1 0x4 DUP3 ADD MSTORE PUSH0 SWAP2 DUP3 SWAP2 PUSH1 0x1 PUSH1 0x1 PUSH1 0xA0 SHL SUB SWAP1 SWAP2 AND SWAP1 PUSH4 0x70A08231 SWAP1 PUSH1 0x24 ADD PUSH1 0x20 PUSH1 0x40 MLOAD DUP1 DUP4 SUB DUP2 DUP7 GAS STATICCALL ISZERO DUP1 ISZERO PUSH2 0xA14 JUMPI RETURNDATASIZE PUSH0 DUP1 RETURNDATACOPY RETURNDATASIZE PUSH0 REVERT JUMPDEST POP POP POP POP PUSH1 0x40 MLOAD RETURNDATASIZE PUSH1 0x1F NOT PUSH1 0x1F DUP3 ADD AND DUP3 ADD DUP1 PUSH1 0x40 MSTORE POP DUP2 ADD SWAP1 PUSH2 0xA38 SWAP2 SWAP1 PUSH2 0xF23 JUMP JUMPDEST GT PUSH2 0xA94 JUMPI PUSH1 0x40 MLOAD PUSH3 0x461BCD PUSH1 0xE5 SHL DUP2 MSTORE PUSH1 0x20 PUSH1 0x4 DUP3 ADD MSTORE PUSH1 0x26 PUSH1 0x24 DUP3 ADD MSTORE PUSH32 0x507265636973612074657220746F6B656E732070617261206372696172207072 PUSH1 0x44 DUP3 ADD MSTORE PUSH6 0x6F706F737461 PUSH1 0xD0 SHL PUSH1 0x64 DUP3 ADD MSTORE PUSH1 0x84 ADD PUSH2 0x2BF JUMP JUMPDEST PUSH0 DUP3 MLOAD GT PUSH2 0xAD6 JUMPI PUSH1 0x40 MLOAD PUSH3 0x461BCD PUSH1 0xE5 SHL DUP2 MSTORE PUSH1 0x20 PUSH1 0x4 DUP3 ADD MSTORE PUSH1 0xF PUSH1 0x24 DUP3 ADD MSTORE PUSH15 0x44657363726963616F2076617A6961 PUSH1 0x88 SHL PUSH1 0x44 DUP3 ADD MSTORE PUSH1 0x64 ADD PUSH2 0x2BF JUMP JUMPDEST PUSH1 0x4 DUP1 SLOAD SWAP1 DUP2 SWAP1 PUSH0 PUSH2 0xAE7 DUP4 PUSH2 0xFCF JUMP JUMPDEST SWAP2 SWAP1 POP SSTORE POP PUSH1 0x40 MLOAD DUP1 PUSH1 0xE0 ADD PUSH1 0x40 MSTORE DUP1 DUP5 DUP2 MSTORE PUSH1 0x20 ADD CALLER PUSH1 0x1 PUSH1 0x1 PUSH1 0xA0 SHL SUB AND DUP2 MSTORE PUSH1 0x20 ADD PUSH0 DUP2 MSTORE PUSH1 0x20 ADD PUSH0 DUP2 MSTORE PUSH1 0x20 ADD PUSH1 0x2 SLOAD TIMESTAMP PUSH2 0xB26 SWAP2 SWAP1 PUSH2 0xF4E JUMP JUMPDEST DUP2 MSTORE PUSH0 PUSH1 0x20 DUP1 DUP4 ADD DUP3 SWAP1 MSTORE PUSH1 0x40 SWAP3 DUP4 ADD DUP3 SWAP1 MSTORE DUP5 DUP3 MSTORE PUSH1 0x5 SWAP1 MSTORE KECCAK256 DUP2 MLOAD DUP2 SWAP1 PUSH2 0xB4F SWAP1 DUP3 PUSH2 0x1033 JUMP JUMPDEST POP PUSH1 0x20 DUP3 ADD MLOAD PUSH1 0x1 DUP3 ADD DUP1 SLOAD PUSH1 0x1 PUSH1 0x1 PUSH1 0xA0 SHL SUB NOT AND PUSH1 0x1 PUSH1 0x1 PUSH1 0xA0 SHL SUB SWAP1 SWAP3 AND SWAP2 SWAP1 SWAP2 OR SWAP1 SSTORE PUSH1 0x40 DUP3 ADD MLOAD PUSH1 0x2 DUP1 DUP4 ADD SWAP2 SWAP1 SWAP2 SSTORE PUSH1 0x60 DUP4 ADD MLOAD PUSH1 0x3 DUP4 ADD SSTORE PUSH1 0x80 DUP4 ADD MLOAD PUSH1 0x4 DUP4 ADD SSTORE PUSH1 0xA0 DUP4 ADD MLOAD PUSH1 0x5 SWAP1 SWAP3 ADD DUP1 SLOAD PUSH1 0xC0 SWAP1 SWAP5 ADD MLOAD PUSH2 0xFFFF NOT SWAP1 SWAP5 AND SWAP3 ISZERO ISZERO PUSH2 0xFF00 NOT AND SWAP3 SWAP1 SWAP3 OR PUSH2 0x100 SWAP4 ISZERO ISZERO SWAP4 SWAP1 SWAP4 MUL SWAP3 SWAP1 SWAP3 OR SWAP1 SSTORE SLOAD CALLER SWAP1 DUP3 SWAP1 PUSH32 0xA4012A3E2ED2A0A1FC40F62FF3EB1302D6B9E2B4ACF44723A3379DCC3CD56491 SWAP1 DUP7 SWAP1 PUSH2 0xC00 SWAP1 TIMESTAMP PUSH2 0xF4E JUMP JUMPDEST PUSH1 0x40 MLOAD PUSH2 0xC0E SWAP3 SWAP2 SWAP1 PUSH2 0x10EE JUMP JUMPDEST PUSH1 0x40 MLOAD DUP1 SWAP2 SUB SWAP1 LOG3 SWAP3 SWAP2 POP POP JUMP JUMPDEST PUSH2 0xC24 PUSH2 0xCB5 JUMP JUMPDEST PUSH0 DUP2 GT PUSH2 0xC73 JUMPI PUSH1 0x40 MLOAD PUSH3 0x461BCD PUSH1 0xE5 SHL DUP2 MSTORE PUSH1 0x20 PUSH1 0x4 DUP3 ADD MSTORE PUSH1 0x1F PUSH1 0x24 DUP3 ADD MSTORE PUSH32 0x4475726163616F206465766520736572206D61696F7220717565207A65726F00 PUSH1 0x44 DUP3 ADD MSTORE PUSH1 0x64 ADD PUSH2 0x2BF JUMP JUMPDEST PUSH1 0x2 SSTORE JUMP JUMPDEST PUSH2 0xC80 PUSH2 0xCB5 JUMP JUMPDEST PUSH1 0x1 PUSH1 0x1 PUSH1 0xA0 SHL SUB DUP2 AND PUSH2 0xCA9 JUMPI PUSH1 0x40 MLOAD PUSH4 0x1E4FBDF7 PUSH1 0xE0 SHL DUP2 MSTORE PUSH0 PUSH1 0x4 DUP3 ADD MSTORE PUSH1 0x24 ADD PUSH2 0x2BF JUMP JUMPDEST PUSH2 0xCB2 DUP2 PUSH2 0xCE1 JUMP JUMPDEST POP JUMP JUMPDEST PUSH0 SLOAD PUSH1 0x1 PUSH1 0x1 PUSH1 0xA0 SHL SUB AND CALLER EQ PUSH2 0x79E JUMPI PUSH1 0x40 MLOAD PUSH4 0x118CDAA7 PUSH1 0xE0 SHL DUP2 MSTORE CALLER PUSH1 0x4 DUP3 ADD MSTORE PUSH1 0x24 ADD PUSH2 0x2BF JUMP JUMPDEST PUSH0 DUP1 SLOAD PUSH1 0x1 PUSH1 0x1 PUSH1 0xA0 SHL SUB DUP4 DUP2 AND PUSH1 0x1 PUSH1 0x1 PUSH1 0xA0 SHL SUB NOT DUP4 AND DUP2 OR DUP5 SSTORE PUSH1 0x40 MLOAD SWAP2 SWAP1 SWAP3 AND SWAP3 DUP4 SWAP2 PUSH32 0x8BE0079C531659141344CD1FD0A4F28419497F9722A3DAAFE3B4186F6B6457E0 SWAP2 SWAP1 LOG3 POP POP JUMP JUMPDEST PUSH0 PUSH1 0x20 DUP3 DUP5 SUB SLT ISZERO PUSH2 0xD40 JUMPI PUSH0 DUP1 REVERT JUMPDEST POP CALLDATALOAD SWAP2 SWAP1 POP JUMP JUMPDEST PUSH0 DUP1 PUSH1 0x40 DUP4 DUP6 SUB SLT ISZERO PUSH2 0xD58 JUMPI PUSH0 DUP1 REVERT JUMPDEST DUP3 CALLDATALOAD SWAP2 POP PUSH1 0x20 DUP4 ADD CALLDATALOAD DUP1 ISZERO ISZERO DUP2 EQ PUSH2 0xD6E JUMPI PUSH0 DUP1 REVERT JUMPDEST DUP1 SWAP2 POP POP SWAP3 POP SWAP3 SWAP1 POP JUMP JUMPDEST PUSH0 DUP2 MLOAD DUP1 DUP5 MSTORE DUP1 PUSH1 0x20 DUP5 ADD PUSH1 0x20 DUP7 ADD MCOPY PUSH0 PUSH1 0x20 DUP3 DUP7 ADD ADD MSTORE PUSH1 0x20 PUSH1 0x1F NOT PUSH1 0x1F DUP4 ADD AND DUP6 ADD ADD SWAP2 POP POP SWAP3 SWAP2 POP POP JUMP JUMPDEST PUSH1 0xE0 DUP2 MSTORE PUSH0 PUSH2 0xDB9 PUSH1 0xE0 DUP4 ADD DUP11 PUSH2 0xD79 JUMP JUMPDEST PUSH1 0x1 PUSH1 0x1 PUSH1 0xA0 SHL SUB SWAP9 SWAP1 SWAP9 AND PUSH1 0x20 DUP4 ADD MSTORE POP PUSH1 0x40 DUP2 ADD SWAP6 SWAP1 SWAP6 MSTORE PUSH1 0x60 DUP6 ADD SWAP4 SWAP1 SWAP4 MSTORE PUSH1 0x80 DUP5 ADD SWAP2 SWAP1 SWAP2 MSTORE ISZERO ISZERO PUSH1 0xA0 DUP4 ADD MSTORE ISZERO ISZERO PUSH1 0xC0 SWAP1 SWAP2 ADD MSTORE SWAP2 SWAP1 POP JUMP JUMPDEST PUSH4 0x4E487B71 PUSH1 0xE0 SHL PUSH0 MSTORE PUSH1 0x41 PUSH1 0x4 MSTORE PUSH1 0x24 PUSH0 REVERT JUMPDEST PUSH0 PUSH1 0x20 DUP3 DUP5 SUB SLT ISZERO PUSH2 0xE1B JUMPI PUSH0 DUP1 REVERT JUMPDEST DUP2 CALLDATALOAD PUSH8 0xFFFFFFFFFFFFFFFF DUP2 GT ISZERO PUSH2 0xE31 JUMPI PUSH0 DUP1 REVERT JUMPDEST DUP3 ADD PUSH1 0x1F DUP2 ADD DUP5 SGT PUSH2 0xE41 JUMPI PUSH0 DUP1 REVERT JUMPDEST DUP1 CALLDATALOAD PUSH8 0xFFFFFFFFFFFFFFFF DUP2 GT ISZERO PUSH2 0xE5B JUMPI PUSH2 0xE5B PUSH2 0xDF7 JUMP JUMPDEST PUSH1 0x40 MLOAD PUSH1 0x1F DUP3 ADD PUSH1 0x1F NOT SWAP1 DUP2 AND PUSH1 0x3F ADD AND DUP2 ADD PUSH8 0xFFFFFFFFFFFFFFFF DUP2 GT DUP3 DUP3 LT OR ISZERO PUSH2 0xE8A JUMPI PUSH2 0xE8A PUSH2 0xDF7 JUMP JUMPDEST PUSH1 0x40 MSTORE DUP2 DUP2 MSTORE DUP3 DUP3 ADD PUSH1 0x20 ADD DUP7 LT ISZERO PUSH2 0xEA1 JUMPI PUSH0 DUP1 REVERT JUMPDEST DUP2 PUSH1 0x20 DUP5 ADD PUSH1 0x20 DUP4 ADD CALLDATACOPY PUSH0 SWAP2 DUP2 ADD PUSH1 0x20 ADD SWAP2 SWAP1 SWAP2 MSTORE SWAP5 SWAP4 POP POP POP POP JUMP JUMPDEST DUP1 CALLDATALOAD PUSH1 0x1 PUSH1 0x1 PUSH1 0xA0 SHL SUB DUP2 AND DUP2 EQ PUSH2 0xED4 JUMPI PUSH0 DUP1 REVERT JUMPDEST SWAP2 SWAP1 POP JUMP JUMPDEST PUSH0 PUSH1 0x20 DUP3 DUP5 SUB SLT ISZERO PUSH2 0xEE9 JUMPI PUSH0 DUP1 REVERT JUMPDEST PUSH2 0xEF2 DUP3 PUSH2 0xEBE JUMP JUMPDEST SWAP4 SWAP3 POP POP POP JUMP JUMPDEST PUSH0 DUP1 PUSH1 0x40 DUP4 DUP6 SUB SLT ISZERO PUSH2 0xF0A JUMPI PUSH0 DUP1 REVERT JUMPDEST DUP3 CALLDATALOAD SWAP2 POP PUSH2 0xF1A PUSH1 0x20 DUP5 ADD PUSH2 0xEBE JUMP JUMPDEST SWAP1 POP SWAP3 POP SWAP3 SWAP1 POP JUMP JUMPDEST PUSH0 PUSH1 0x20 DUP3 DUP5 SUB SLT ISZERO PUSH2 0xF33 JUMPI PUSH0 DUP1 REVERT JUMPDEST POP MLOAD SWAP2 SWAP1 POP JUMP JUMPDEST PUSH4 0x4E487B71 PUSH1 0xE0 SHL PUSH0 MSTORE PUSH1 0x11 PUSH1 0x4 MSTORE PUSH1 0x24 PUSH0 REVERT JUMPDEST DUP1 DUP3 ADD DUP1 DUP3 GT ISZERO PUSH2 0x2FF JUMPI PUSH2 0x2FF PUSH2 0xF3A JUMP JUMPDEST PUSH1 0x1 DUP2 DUP2 SHR SWAP1 DUP3 AND DUP1 PUSH2 0xF75 JUMPI PUSH1 0x7F DUP3 AND SWAP2 POP JUMPDEST PUSH1 0x20 DUP3 LT DUP2 SUB PUSH2 0xF93 JUMPI PUSH4 0x4E487B71 PUSH1 0xE0 SHL PUSH0 MSTORE PUSH1 0x22 PUSH1 0x4 MSTORE PUSH1 0x24 PUSH0 REVERT JUMPDEST POP SWAP2 SWAP1 POP JUMP JUMPDEST DUP1 DUP3 MUL DUP2 ISZERO DUP3 DUP3 DIV DUP5 EQ OR PUSH2 0x2FF JUMPI PUSH2 0x2FF PUSH2 0xF3A JUMP JUMPDEST PUSH0 DUP3 PUSH2 0xFCA JUMPI PUSH4 0x4E487B71 PUSH1 0xE0 SHL PUSH0 MSTORE PUSH1 0x12 PUSH1 0x4 MSTORE PUSH1 0x24 PUSH0 REVERT JUMPDEST POP DIV SWAP1 JUMP JUMPDEST PUSH0 PUSH1 0x1 DUP3 ADD PUSH2 0xFE0 JUMPI PUSH2 0xFE0 PUSH2 0xF3A JUMP JUMPDEST POP PUSH1 0x1 ADD SWAP1 JUMP JUMPDEST PUSH1 0x1F DUP3 GT ISZERO PUSH2 0x102E JUMPI DUP1 PUSH0 MSTORE PUSH1 0x20 PUSH0 KECCAK256 PUSH1 0x1F DUP5 ADD PUSH1 0x5 SHR DUP2 ADD PUSH1 0x20 DUP6 LT ISZERO PUSH2 0x100C JUMPI POP DUP1 JUMPDEST PUSH1 0x1F DUP5 ADD PUSH1 0x5 SHR DUP3 ADD SWAP2 POP JUMPDEST DUP2 DUP2 LT ISZERO PUSH2 0x102B JUMPI PUSH0 DUP2 SSTORE PUSH1 0x1 ADD PUSH2 0x1018 JUMP JUMPDEST POP POP JUMPDEST POP POP POP JUMP JUMPDEST DUP2 MLOAD PUSH8 0xFFFFFFFFFFFFFFFF DUP2 GT ISZERO PUSH2 0x104D JUMPI PUSH2 0x104D PUSH2 0xDF7 JUMP JUMPDEST PUSH2 0x1061 DUP2 PUSH2 0x105B DUP5 SLOAD PUSH2 0xF61 JUMP JUMPDEST DUP5 PUSH2 0xFE7 JUMP JUMPDEST PUSH1 0x20 PUSH1 0x1F DUP3 GT PUSH1 0x1 DUP2 EQ PUSH2 0x1093 JUMPI PUSH0 DUP4 ISZERO PUSH2 0x107C JUMPI POP DUP5 DUP3 ADD MLOAD JUMPDEST PUSH0 NOT PUSH1 0x3 DUP6 SWAP1 SHL SHR NOT AND PUSH1 0x1 DUP5 SWAP1 SHL OR DUP5 SSTORE PUSH2 0x102B JUMP JUMPDEST PUSH0 DUP5 DUP2 MSTORE PUSH1 0x20 DUP2 KECCAK256 PUSH1 0x1F NOT DUP6 AND SWAP2 JUMPDEST DUP3 DUP2 LT ISZERO PUSH2 0x10C2 JUMPI DUP8 DUP6 ADD MLOAD DUP3 SSTORE PUSH1 0x20 SWAP5 DUP6 ADD SWAP5 PUSH1 0x1 SWAP1 SWAP3 ADD SWAP2 ADD PUSH2 0x10A2 JUMP JUMPDEST POP DUP5 DUP3 LT ISZERO PUSH2 0x10DF JUMPI DUP7 DUP5 ADD MLOAD PUSH0 NOT PUSH1 0x3 DUP8 SWAP1 SHL PUSH1 0xF8 AND SHR NOT AND DUP2 SSTORE JUMPDEST POP POP POP POP PUSH1 0x1 SWAP1 DUP2 SHL ADD SWAP1 SSTORE POP JUMP JUMPDEST PUSH1 0x40 DUP2 MSTORE PUSH0 PUSH2 0x1100 PUSH1 0x40 DUP4 ADD DUP6 PUSH2 0xD79 JUMP JUMPDEST SWAP1 POP DUP3 PUSH1 0x20 DUP4 ADD MSTORE SWAP4 SWAP3 POP POP POP JUMP INVALID LOG2 PUSH5 0x6970667358 0x22 SLT KECCAK256 PUSH30 0x49AC9562B0D47AC6159222330B886FB9EE2464AEB9BBCD23DB5BC90C80E2 RETURNDATASIZE PUSH5 0x736F6C6343 STOP ADDMOD BYTE STOP CALLER "},"methodIdentifiers":{"consultarProposta(uint256)":"58c57138","criarProposta(string)":"96180dd6","duracaoVotacao()":"724e0556","executarProposta(uint256)":"84a8af29","fundToken()":"50adcdb7","jaVotou(uint256,address)":"f3d33f7c","owner()":"8da5cb5b","propostas(uint256)":"6f4777be","quorumMinimo()":"bda59931","renounceOwnership()":"715018a6","setDuracaoVotacao(uint256)":"a20e9f13","setQuorumMinimo(uint256)":"0be894de","totalPropostas()":"4556f013","transferOwnership(address)":"f2fde38b","votacaoAberta(uint256)":"2024e98c","votar(uint256,bool)":"28962d4e"}}}}}