{
  "_format": "hh-sol-artifact-1",
  "contractName": "FundDAO",
  "sourceName": "contracts/FundDAO.sol",
  "abi": [
    {
      "inputs": [
        {
          "internalType": "address",
          "name": "_fundToken",
          "type": "address"
        }
      ],
      "stateMutability": "nonpayable",
      "type": "constructor"
    },
    {
      "inputs": [
        {
          "internalType": "address",
          "name": "owner",
          "type": "address"
        }
      ],
      "name": "OwnableInvalidOwner",
      "type": "error"
    },
    {
      "inputs": [
        {
          "internalType": "address",
          "name": "account",
          "type": "address"
        }
      ],
      "name": "OwnableUnauthorizedAccount",
      "type": "error"
    },
    {
      "anonymous": false,
      "inputs": [
        {
          "indexed": true,
          "internalType": "address",
          "name": "previousOwner",
          "type": "address"
        },
        {
          "indexed": true,
          "internalType": "address",
          "name": "newOwner",
          "type": "address"
        }
      ],
      "name": "OwnershipTransferred",
      "type": "event"
    },
    {
      "anonymous": false,
      "inputs": [
        {
          "indexed": true,
          "internalType": "uint256",
          "name": "propostaId",
          "type": "uint256"
        },
        {
          "indexed": true,
          "internalType": "address",
          "name": "proponente",
          "type": "address"
        },
        {
          "indexed": false,
          "internalType": "string",
          "name": "descricao",
          "type": "string"
        },
        {
          "indexed": false,
          "internalType": "uint256",
          "name": "prazoFinal",
          "type": "uint256"
        }
      ],
      "name": "PropostaCriada",
      "type": "event"
    },
    {
      "anonymous": false,
      "inputs": [
        {
          "indexed": true,
          "internalType": "uint256",
          "name": "propostaId",
          "type": "uint256"
        },
        {
          "indexed": false,
          "internalType": "bool",
          "name": "aprovada",
          "type": "bool"
        }
      ],
      "name": "PropostaExecutada",
      "type": "event"
    },
    {
      "anonymous": false,
      "inputs": [
        {
          "indexed": true,
          "internalType": "uint256",
          "name": "propostaId",
          "type": "uint256"
        },
        {
          "indexed": true,
          "internalType": "address",
          "name": "votante",
          "type": "address"
        },
        {
          "indexed": false,
          "internalType": "bool",
          "name": "aFavor",
          "type": "bool"
        },
        {
          "indexed": false,
          "internalType": "uint256",
          "name": "pesoVoto",
          "type": "uint256"
        }
      ],
      "name": "VotoRegistrado",
      "type": "event"
    },
    {
      "inputs": [
        {
          "internalType": "uint256",
          "name": "_propostaId",
          "type": "uint256"
        }
      ],
      "name": "consultarProposta",
      "outputs": [
        {
          "internalType": "string",
          "name": "descricao",
          "type": "string"
        },
        {
          "internalType": "address",
          "name": "proponente",
          "type": "address"
        },
        {
          "internalType": "uint256",
          "name": "votosAFavor",
          "type": "uint256"
        },
        {
          "internalType": "uint256",
          "name": "votosContra",
          "type": "uint256"
        },
        {
          "internalType": "uint256",
          "name": "prazoFinal",
          "type": "uint256"
        },
        {
          "internalType": "bool",
          "name": "executada",
          "type": "bool"
        },
        {
          "internalType": "bool",
          "name": "aprovada",
          "type": "bool"
        }
      ],
      "stateMutability": "view",
      "type": "function"
    },
    {
      "inputs": [
        {
          "internalType": "string",
          "name": "_descricao",
          "type": "string"
        }
      ],
      "name": "criarProposta",
      "outputs": [
        {
          "internalType": "uint256",
          "name": "",
          "type": "uint256"
        }
      ],
      "stateMutability": "nonpayable",
      "type": "function"
    },
    {
      "inputs": [],
      "name": "duracaoVotacao",
      "outputs": [
        {
          "internalType": "uint256",
          "name": "",
          "type": "uint256"
        }
      ],
      "stateMutability": "view",
      "type": "function"
    },
    {
      "inputs": [
        {
          "internalType": "uint256",
          "name": "_propostaId",
          "type": "uint256"
        }
      ],
      "name": "executarProposta",
      "outputs": [],
      "stateMutability": "nonpayable",
      "type": "function"
    },
    {
      "inputs": [],
      "name": "fundToken",
      "outputs": [
        {
          "internalType": "contract IERC20",
          "name": "",
          "type": "address"
        }
      ],
      "stateMutability": "view",
      "type": "function"
    },
    {
      "inputs": [
        {
          "internalType": "uint256",
          "name": "",
          "type": "uint256"
        },
        {
          "internalType": "address",
          "name": "",
          "type": "address"
        }
      ],
      "name": "jaVotou",
      "outputs": [
        {
          "internalType": "bool",
          "name": "",
          "type": "bool"
        }
      ],
      "stateMutability": "view",
      "type": "function"
    },
    {
      "inputs": [],
      "name": "owner",
      "outputs": [
        {
          "internalType": "address",
          "name": "",
          "type": "address"
        }
      ],
      "stateMutability": "view",
      "type": "function"
    },
    {
      "inputs": [
        {
          "internalType": "uint256",
          "name": "",
          "type": "uint256"
        }
      ],
      "name": "propostas",
      "outputs": [
        {
          "internalType": "string",
          "name": "descricao",
          "type": "string"
        },
        {
          "internalType": "address",
          "name": "proponente",
          "type": "address"
        },
        {
          "internalType": "uint256",
          "name": "votosAFavor",
          "type": "uint256"
        },
        {
          "internalType": "uint256",
          "name": "votosContra",
          "type": "uint256"
        },
        {
          "internalType": "uint256",
          "name": "prazoFinal",
          "type": "uint256"
        },
        {
          "internalType": "bool",
          "name": "executada",
          "type": "bool"
        },
        {
          "internalType": "bool",
          "name": "aprovada",
          "type": "bool"
        }
      ],
      "stateMutability": "view",
      "type": "function"
    },
    {
      "inputs": [],
      "name": "quorumMinimo",
      "outputs": [
        {
          "internalType": "uint256",
          "name": "",
          "type": "uint256"
        }
      ],
      "stateMutability": "view",
      "type": "function"
    },
    {
      "inputs": [],
      "name": "renounceOwnership",
      "outputs": [],
      "stateMutability": "nonpayable",
      "type": "function"
    },
    {
      "inputs": [
        {
          "internalType": "uint256",
          "name": "_novaDuracao",
          "type": "uint256"
        }
      ],
      "name": "setDuracaoVotacao",
      "outputs": [],
      "stateMutability": "nonpayable",
      "type": "function"
    },
    {
      "inputs": [
        {
          "internalType": "uint256",
          "name": "_novoQuorum",
          "type": "uint256"
        }
      ],
      "name": "setQuorumMinimo",
      "outputs": [],
      "stateMutability": "nonpayable",
      "type": "function"
    },
    {
      "inputs": [],
      "name": "totalPropostas",
      "outputs": [
        {
          "internalType": "uint256",
          "name": "",
          "type": "uint256"
        }
      ],
      "stateMutability": "view",
      "type": "function"
    },
    {
      "inputs": [
        {
          "internalType": "address",
          "name": "newOwner",
          "type": "address"
        }
      ],
      "name": "transferOwnership",
      "outputs": [],
      "stateMutability": "nonpayable",
      "type": "function"
    },
    {
      "inputs": [
        {
          "internalType": "uint256",
          "name": "_propostaId",
          "type": "uint256"
        }
      ],
      "name": "votacaoAberta",
      "outputs": [
        {
          "internalType": "bool",
          "name": "",
          "type": "bool"
        }
      ],
      "stateMutability": "view",
      "type": "function"
    },
    {
      "inputs": [
        {
          "internalType": "uint256",
          "name": "_propostaId",
          "type": "uint256"
        },
        {
          "internalType": "bool",
          "name": "_aFavor",
          "type": "bool"
        }
      ],
      "name": "votar",
      "outputs": [],
      "stateMutability": "nonpayable",
      "type": "function"
    }
  ],
  "bytecode": "0x60806040526203f480600255600a60035534801561001b575f80fd5b506040516112b33803806112b383398101604081905261003a91610134565b338061006057604051631e4fbdf760e01b81525f60048201526024015b60405180910390fd5b610069816100e5565b506001600160a01b0381166100c05760405162461bcd60e51b815260206004820152601a60248201527f456e64657265636f20646f20746f6b656e20696e76616c69646f0000000000006044820152606401610057565b600180546001600160a01b0319166001600160a01b0392909216919091179055610161565b5f80546001600160a01b038381166001600160a01b0319831681178455604051919092169283917f8be0079c531659141344cd1fd0a4f28419497f9722a3daafe3b4186f6b6457e09190a35050565b5f60208284031215610144575f80fd5b81516001600160a01b038116811461015a575f80fd5b9392505050565b6111458061016e5f395ff3fe608060405234801561000f575f80fd5b50600436106100fb575f3560e01c8063724e055611610093578063a20e9f1311610063578063a20e9f1314610211578063bda5993114610224578063f2fde38b1461022d578063f3d33f7c14610240575f80fd5b8063724e0556146101d257806384a8af29146101db5780638da5cb5b146101ee57806396180dd6146101fe575f80fd5b806350adcdb7116100ce57806350adcdb71461016657806358c57138146101915780636f4777be146101b7578063715018a6146101ca575f80fd5b80630be894de146100ff5780632024e98c1461011457806328962d4e1461013c5780634556f0131461014f575b5f80fd5b61011261010d366004610d30565b61026d565b005b610127610122366004610d30565b6102cd565b60405190151581526020015b60405180910390f35b61011261014a366004610d47565b610305565b61015860045481565b604051908152602001610133565b600154610179906001600160a01b031681565b6040516001600160a01b039091168152602001610133565b6101a461019f366004610d30565b610570565b6040516101339796959493929190610da7565b6101a46101c5366004610d30565b6106bd565b61011261078d565b61015860025481565b6101126101e9366004610d30565b6107a0565b5f546001600160a01b0316610179565b61015861020c366004610e0b565b6109ca565b61011261021f366004610d30565b610c1c565b61015860035481565b61011261023b366004610ed9565b610c78565b61012761024e366004610ef9565b600660209081525f928352604080842090915290825290205460ff1681565b610275610cb5565b5f81118015610285575060648111155b6102c85760405162461bcd60e51b815260206004820152600f60248201526e51756f72756d20696e76616c69646f60881b60448201526064015b60405180910390fd5b600355565b5f8181526005602052604081206004015442118015906102ff57505f828152600560208190526040909120015460ff16155b92915050565b5f828152600560205260409020600481015442111561035a5760405162461bcd60e51b8152602060048201526011602482015270566f746163616f20656e6365727261646160781b60448201526064016102bf565b600581015460ff16156103a75760405162461bcd60e51b815260206004820152601560248201527450726f706f737461206a612065786563757461646160581b60448201526064016102bf565b5f83815260066020908152604080832033845290915290205460ff16156104105760405162461bcd60e51b815260206004820152601760248201527f4a6120766f746f75206e657374612070726f706f73746100000000000000000060448201526064016102bf565b6001546040516370a0823160e01b81523360048201525f916001600160a01b0316906370a0823190602401602060405180830381865afa158015610456573d5f803e3d5ffd5b505050506040513d601f19601f8201168201806040525081019061047a9190610f23565b90505f81116104cb5760405162461bcd60e51b815260206004820152601d60248201527f507265636973612074657220746f6b656e73207061726120766f74617200000060448201526064016102bf565b5f8481526006602090815260408083203384529091529020805460ff1916600117905582156105125780826002015f8282546105079190610f4e565b9091555061052b9050565b80826003015f8282546105259190610f4e565b90915550505b60408051841515815260208101839052339186917f5c444d0b5fa63c33f98d28062068994007eeeb8b1bd6bf13944fb8540e154db6910160405180910390a350505050565b60605f805f805f805f60055f8a81526020019081526020015f206040518060e00160405290815f820180546105a490610f61565b80601f01602080910402602001604051908101604052809291908181526020018280546105d090610f61565b801561061b5780601f106105f25761010080835404028352916020019161061b565b820191905f5260205f20905b8154815290600101906020018083116105fe57829003601f168201915b505050918352505060018201546001600160a01b031660208083019190915260028301546040808401919091526003840154606080850191909152600485015460808086019190915260059095015460ff808216151560a08088019190915261010090920416151560c095860152865193870151928701519187015195870151908701519690940151929f919e509c50929a5090985091965090945092505050565b60056020525f90815260409020805481906106d790610f61565b80601f016020809104026020016040519081016040528092919081815260200182805461070390610f61565b801561074e5780601f106107255761010080835404028352916020019161074e565b820191905f5260205f20905b81548152906001019060200180831161073157829003601f168201915b505050600184015460028501546003860154600487015460059097015495966001600160a01b0390931695919450925060ff8082169161010090041687565b610795610cb5565b61079e5f610ce1565b565b6107a8610cb5565b5f818152600560205260409020600481015442116108085760405162461bcd60e51b815260206004820152601a60248201527f566f746163616f2061696e646120656d20616e64616d656e746f00000000000060448201526064016102bf565b600581015460ff16156108555760405162461bcd60e51b815260206004820152601560248201527450726f706f737461206a612065786563757461646160581b60448201526064016102bf565b5f8160030154826002015461086a9190610f4e565b90505f60015f9054906101000a90046001600160a01b03166001600160a01b03166318160ddd6040518163ffffffff1660e01b8152600401602060405180830381865afa1580156108bd573d5f803e3d5ffd5b505050506040513d601f19601f820116820180604052508101906108e19190610f23565b90505f816108f0846064610f99565b6108fa9190610fb0565b905060035481101561094e5760405162461bcd60e51b815260206004820152601a60248201527f51756f72756d206d696e696d6f206e616f206174696e6769646f00000000000060448201526064016102bf565b60058401805460ff1916600117905560038401546002850154111561097f5760058401805461ff0019166101001790555b600584015460405161010090910460ff161515815285907f29b0c4e872c8cbc8af2283fdde16f2e8af08fd63d6fe9480c03a94c1d7c1c34c9060200160405180910390a25050505050565b6001546040516370a0823160e01b81523360048201525f9182916001600160a01b03909116906370a0823190602401602060405180830381865afa158015610a14573d5f803e3d5ffd5b505050506040513d601f19601f82011682018060405250810190610a389190610f23565b11610a945760405162461bcd60e51b815260206004820152602660248201527f507265636973612074657220746f6b656e7320706172612063726961722070726044820152656f706f73746160d01b60648201526084016102bf565b5f825111610ad65760405162461bcd60e51b815260206004820152600f60248201526e44657363726963616f2076617a696160881b60448201526064016102bf565b600480549081905f610ae783610fcf565b91905055506040518060e00160405280848152602001336001600160a01b031681526020015f81526020015f815260200160025442610b269190610f4e565b81525f60208083018290526040928301829052848252600590522081518190610b4f9082611033565b5060208201516001820180546001600160a01b0319166001600160a01b039092169190911790556040820151600280830191909155606083015160038301556080830151600483015560a08301516005909201805460c09094015161ffff1990941692151561ff001916929092176101009315159390930292909217905554339082907fa4012a3e2ed2a0a1fc40f62ff3eb1302d6b9e2b4acf44723a3379dcc3cd56491908690610c009042610f4e565b604051610c0e9291906110ee565b60405180910390a392915050565b610c24610cb5565b5f8111610c735760405162461bcd60e51b815260206004820152601f60248201527f4475726163616f206465766520736572206d61696f7220717565207a65726f0060448201526064016102bf565b600255565b610c80610cb5565b6001600160a01b038116610ca957604051631e4fbdf760e01b81525f60048201526024016102bf565b610cb281610ce1565b50565b5f546001600160a01b0316331461079e5760405163118cdaa760e01b81523360048201526024016102bf565b5f80546001600160a01b038381166001600160a01b0319831681178455604051919092169283917f8be0079c531659141344cd1fd0a4f28419497f9722a3daafe3b4186f6b6457e09190a35050565b5f60208284031215610d40575f80fd5b5035919050565b5f8060408385031215610d58575f80fd5b8235915060208301358015158114610d6e575f80fd5b809150509250929050565b5f81518084528060208401602086015e5f602082860101526020601f19601f83011685010191505092915050565b60e081525f610db960e083018a610d79565b6001600160a01b0398909816602083015250604081019590955260608501939093526080840191909152151560a0830152151560c090910152919050565b634e487b7160e01b5f52604160045260245ffd5b5f60208284031215610e1b575f80fd5b813567ffffffffffffffff811115610e31575f80fd5b8201601f81018413610e41575f80fd5b803567ffffffffffffffff811115610e5b57610e5b610df7565b604051601f8201601f19908116603f0116810167ffffffffffffffff81118282101715610e8a57610e8a610df7565b604052818152828201602001861015610ea1575f80fd5b816020840160208301375f91810160200191909152949350505050565b80356001600160a01b0381168114610ed4575f80fd5b919050565b5f60208284031215610ee9575f80fd5b610ef282610ebe565b9392505050565b5f8060408385031215610f0a575f80fd5b82359150610f1a60208401610ebe565b90509250929050565b5f60208284031215610f33575f80fd5b5051919050565b634e487b7160e01b5f52601160045260245ffd5b808201808211156102ff576102ff610f3a565b600181811c90821680610f7557607f821691505b602082108103610f9357634e487b7160e01b5f52602260045260245ffd5b50919050565b80820281158282048414176102ff576102ff610f3a565b5f82610fca57634e487b7160e01b5f52601260045260245ffd5b500490565b5f60018201610fe057610fe0610f3a565b5060010190565b601f82111561102e57805f5260205f20601f840160051c8101602085101561100c5750805b601f840160051c820191505b8181101561102b575f8155600101611018565b50505b505050565b815167ffffffffffffffff81111561104d5761104d610df7565b6110618161105b8454610f61565b84610fe7565b6020601f821160018114611093575f831561107c5750848201515b5f19600385901b1c1916600184901b17845561102b565b5f84815260208120601f198516915b828110156110c257878501518255602094850194600190920191016110a2565b50848210156110df57868401515f19600387901b60f8161c191681555b50505050600190811b01905550565b604081525f6111006040830185610d79565b9050826020830152939250505056fea26469706673582212207d49ac9562b0d47ac6159222330b886fb9ee2464aeb9bbcd23db5bc90c80e23d64736f6c634300081a0033",
  "linkReferences": {},
  "deployedLinkReferences": {}
}