{
  "_format": "hh-sol-artifact-1",
  "contractName": "FundToken",
  "sourceName": "contracts/FundToken.sol",
  "abi": [
    {
      "inputs": [],
      "stateMutability": "nonpayable",
      "type": "constructor"
    },
    {
      "inputs": [
        {
          "internalType": "address",
          "name": "spender",
          "type": "address"
        },
        {
          "internalType": "uint256",
          "name": "allowance",
          "type": "uint256"
        },
        {
          "internalType": "uint256",
          "name": "needed",
          "type": "uint256"
        }
      ],
      "name": "ERC20InsufficientAllowance",
      "type": "error"
    },
    {
      "inputs": [
        {
          "internalType": "address",
          "name": "sender",
          "type": "address"
        },
        {
          "internalType": "uint256",
          "name": "balance",
          "type": "uint256"
        },
        {
          "internalType": "uint256",
          "name": "needed",
          "type": "uint256"
        }
      ],
      "name": "ERC20InsufficientBalance",
      "type": "error"
    },
    {
      "inputs": [
        {
          "internalType": "address",
          "name": "approver",
          "type": "address"
        }
      ],
      "name": "ERC20InvalidApprover",
      "type": "error"
    },
    {
      "inputs": [
        {
          "internalType": "address",
          "name": "receiver",
          "type": "address"
        }
      ],
      "name": "ERC20InvalidReceiver",
      "type": "error"
    },
    {
      "inputs": [
        {
          "internalType": "address",
          "name": "sender",
          "type": "address"
        }
      ],
      "name": "ERC20InvalidSender",
      "type": "error"
    },
    {
      "inputs": [
        {
          "internalType": "address",
          "name": "spender",
          "type": "address"
        }
      ],
      "name": "ERC20InvalidSpender",
      "type": "error"
    },
    {
      "inputs": [
        {
          "internalType": "address",
          "name": "owner",
          "type": "address"
        }
      ],
      "name": "OwnableInvalidOwner",
      "type": "error"
    },
    {
      "inputs": [
        {
          "internalType": "address",
          "name": "account",
          "type": "address"
        }
      ],
      "name": "OwnableUnauthorizedAccount",
      "type": "error"
    },
    {
      "anonymous": false,
      "inputs": [
        {
          "indexed": true,
          "internalType": "address",
          "name": "owner",
          "type": "address"
        },
        {
          "indexed": true,
          "internalType": "address",
          "name": "spender",
          "type": "address"
        },
        {
          "indexed": false,
          "internalType": "uint256",
          "name": "value",
          "type": "uint256"
        }
      ],
      "name": "Approval",
      "type": "event"
    },
    {
      "anonymous": false,
      "inputs": [
        {
          "indexed": true,
          "internalType": "address",
          "name": "previousOwner",
          "type": "address"
        },
        {
          "indexed": true,
          "internalType": "address",
          "name": "newOwner",
          "type": "address"
        }
      ],
      "name": "OwnershipTransferred",
      "type": "event"
    },
    {
      "anonymous": false,
      "inputs": [
        {
          "indexed": true,
          "internalType": "address",
          "name": "buyer",
          "type": "address"
        },
        {
          "indexed": false,
          "internalType": "uint256",
          "name": "amount",
          "type": "uint256"
        },
        {
          "indexed": false,
          "internalType": "uint256",
          "name": "cost",
          "type": "uint256"
        }
      ],
      "name": "TokensPurchased",
      "type": "event"
    },
    {
      "anonymous": false,
      "inputs": [
        {
          "indexed": true,
          "internalType": "address",
          "name": "from",
          "type": "address"
        },
        {
          "indexed": true,
          "internalType": "address",
          "name": "to",
          "type": "address"
        },
        {
          "indexed": false,
          "internalType": "uint256",
          "name": "value",
          "type": "uint256"
        }
      ],
      "name": "Transfer",
      "type": "event"
    },
    {
      "inputs": [
        {
          "internalType": "address",
          "name": "owner",
          "type": "address"
        },
        {
          "internalType": "address",
          "name": "spender",
          "type": "address"
        }
      ],
      "name": "allowance",
      "outputs": [
        {
          "internalType": "uint256",
          "name": "",
          "type": "uint256"
        }
      ],
      "stateMutability": "view",
      "type": "function"
    },
    {
      "inputs": [
        {
          "internalType": "address",
          "name": "spender",
          "type": "address"
        },
        {
          "internalType": "uint256",
          "name": "value",
          "type": "uint256"
        }
      ],
      "name": "approve",
      "outputs": [
        {
          "internalType": "bool",
          "name": "",
          "type": "bool"
        }
      ],
      "stateMutability": "nonpayable",
      "type": "function"
    },
    {
      "inputs": [
        {
          "internalType": "address",
          "name": "account",
          "type": "address"
        }
      ],
      "name": "balanceOf",
      "outputs": [
        {
          "internalType": "uint256",
          "name": "",
          "type": "uint256"
        }
      ],
      "stateMutability": "view",
      "type": "function"
    },
    {
      "inputs": [],
      "name": "buyTokens",
      "outputs": [],
      "stateMutability": "payable",
      "type": "function"
    },
    {
      "inputs": [],
      "name": "decimals",
      "outputs": [
        {
          "internalType": "uint8",
          "name": "",
          "type": "uint8"
        }
      ],
      "stateMutability": "view",
      "type": "function"
    },
    {
      "inputs": [
        {
          "internalType": "address",
          "name": "_to",
          "type": "address"
        },
        {
          "internalType": "uint256",
          "name": "_amount",
          "type": "uint256"
        }
      ],
      "name": "mint",
      "outputs": [],
      "stateMutability": "nonpayable",
      "type": "function"
    },
    {
      "inputs": [],
      "name": "name",
      "outputs": [
        {
          "internalType": "string",
          "name": "",
          "type": "string"
        }
      ],
      "stateMutability": "view",
      "type": "function"
    },
    {
      "inputs": [],
      "name": "owner",
      "outputs": [
        {
          "internalType": "address",
          "name": "",
          "type": "address"
        }
      ],
      "stateMutability": "view",
      "type": "function"
    },
    {
      "inputs": [],
      "name": "renounceOwnership",
      "outputs": [],
      "stateMutability": "nonpayable",
      "type": "function"
    },
    {
      "inputs": [
        {
          "internalType": "uint256",
          "name": "_newPrice",
          "type": "uint256"
        }
      ],
      "name": "setTokenPrice",
      "outputs": [],
      "stateMutability": "nonpayable",
      "type": "function"
    },
    {
      "inputs": [],
      "name": "symbol",
      "outputs": [
        {
          "internalType": "string",
          "name": "",
          "type": "string"
        }
      ],
      "stateMutability": "view",
      "type": "function"
    },
    {
      "inputs": [],
      "name": "tokenPrice",
      "outputs": [
        {
          "internalType": "uint256",
          "name": "",
          "type": "uint256"
        }
      ],
      "stateMutability": "view",
      "type": "function"
    },
    {
      "inputs": [],
      "name": "totalSupply",
      "outputs": [
        {
          "internalType": "uint256",
          "name": "",
          "type": "uint256"
        }
      ],
      "stateMutability": "view",
      "type": "function"
    },
    {
      "inputs": [
        {
          "internalType": "address",
          "name": "to",
          "type": "address"
        },
        {
          "internalType": "uint256",
          "name": "value",
          "type": "uint256"
        }
      ],
      "name": "transfer",
      "outputs": [
        {
          "internalType": "bool",
          "name": "",
          "type": "bool"
        }
      ],
      "stateMutability": "nonpayable",
      "type": "function"
    },
    {
      "inputs": [
        {
          "internalType": "address",
          "name": "from",
          "type": "address"
        },
        {
          "internalType": "address",
          "name": "to",
          "type": "address"
        },
        {
          "internalType": "uint256",
          "name": "value",
          "type": "uint256"
        }
      ],
      "name": "transferFrom",
      "outputs": [
        {
          "internalType": "bool",
          "name": "",
          "type": "bool"
        }
      ],
      "stateMutability": "nonpayable",
      "type": "function"
    },
    {
      "inputs": [
        {
          "internalType": "address",
          "name": "newOwner",
          "type": "address"
        }
      ],
      "name": "transferOwnership",
      "outputs": [],
      "stateMutability": "nonpayable",
      "type": "function"
    },
    {
      "inputs": [],
      "name": "withdraw",
      "outputs": [],
      "stateMutability": "nonpayable",
      "type": "function"
    }
  ],
  "bytecode": "0x608060405266038d7ea4c6800060065534801561001a575f80fd5b503360405180604001604052806009815260200168233ab7322a37b5b2b760b91b815250604051806040016040528060048152602001631195539160e21b815250816003908161006a9190610320565b5060046100778282610320565b5050506001600160a01b0381166100a857604051631e4fbdf760e01b81525f60048201526024015b60405180910390fd5b6100b1816100d9565b506100d4336100c26012600a6104d3565b6100cf90620f42406104e8565b61012a565b610512565b600580546001600160a01b038381166001600160a01b0319831681179093556040519116919082907f8be0079c531659141344cd1fd0a4f28419497f9722a3daafe3b4186f6b6457e0905f90a35050565b6001600160a01b0382166101535760405163ec442f0560e01b81525f600482015260240161009f565b61015e5f8383610162565b5050565b6001600160a01b03831661018c578060025f82825461018191906104ff565b909155506101fc9050565b6001600160a01b0383165f90815260208190526040902054818110156101de5760405163391434e360e21b81526001600160a01b0385166004820152602481018290526044810183905260640161009f565b6001600160a01b0384165f9081526020819052604090209082900390555b6001600160a01b03821661021857600280548290039055610236565b6001600160a01b0382165f9081526020819052604090208054820190555b816001600160a01b0316836001600160a01b03167fddf252ad1be2c89b69c2b068fc378daa952ba7f163c4a11628f55a4df523b3ef8360405161027b91815260200190565b60405180910390a3505050565b634e487b7160e01b5f52604160045260245ffd5b600181811c908216806102b057607f821691505b6020821081036102ce57634e487b7160e01b5f52602260045260245ffd5b50919050565b601f82111561031b57805f5260205f20601f840160051c810160208510156102f95750805b601f840160051c820191505b81811015610318575f8155600101610305565b50505b505050565b81516001600160401b0381111561033957610339610288565b61034d81610347845461029c565b846102d4565b6020601f82116001811461037f575f83156103685750848201515b5f19600385901b1c1916600184901b178455610318565b5f84815260208120601f198516915b828110156103ae578785015182556020948501946001909201910161038e565b50848210156103cb57868401515f19600387901b60f8161c191681555b50505050600190811b01905550565b634e487b7160e01b5f52601160045260245ffd5b6001815b60018411156104295780850481111561040d5761040d6103da565b600184161561041b57908102905b60019390931c9280026103f2565b935093915050565b5f8261043f575060016104cd565b8161044b57505f6104cd565b8160018114610461576002811461046b57610487565b60019150506104cd565b60ff84111561047c5761047c6103da565b50506001821b6104cd565b5060208310610133831016604e8410600b84101617156104aa575081810a6104cd565b6104b65f1984846103ee565b805f19048211156104c9576104c96103da565b0290505b92915050565b5f6104e160ff841683610431565b9392505050565b80820281158282048414176104cd576104cd6103da565b808201808211156104cd576104cd6103da565b610cf38061051f5f395ff3fe6080604052600436106100fa575f3560e01c806370a082311161009257806395d89b411161006257806395d89b4114610287578063a9059cbb1461029b578063d0febe4c146102ba578063dd62ed3e146102c2578063f2fde38b14610306575f80fd5b806370a0823114610203578063715018a6146102375780637ff9b5961461024b5780638da5cb5b14610260575f80fd5b8063313ce567116100cd578063313ce567146101945780633ccfd60b146101af57806340c10f19146101c55780636a61e5fc146101e4575f80fd5b806306fdde03146100fe578063095ea7b31461012857806318160ddd1461015757806323b872dd14610175575b5f80fd5b348015610109575f80fd5b50610112610325565b60405161011f9190610a1d565b60405180910390f35b348015610133575f80fd5b50610147610142366004610a6d565b6103b5565b604051901515815260200161011f565b348015610162575f80fd5b506002545b60405190815260200161011f565b348015610180575f80fd5b5061014761018f366004610a95565b6103ce565b34801561019f575f80fd5b506040516012815260200161011f565b3480156101ba575f80fd5b506101c36103f1565b005b3480156101d0575f80fd5b506101c36101df366004610a6d565b61047e565b3480156101ef575f80fd5b506101c36101fe366004610acf565b610490565b34801561020e575f80fd5b5061016761021d366004610ae6565b6001600160a01b03165f9081526020819052604090205490565b348015610242575f80fd5b506101c36104ec565b348015610256575f80fd5b5061016760065481565b34801561026b575f80fd5b506005546040516001600160a01b03909116815260200161011f565b348015610292575f80fd5b506101126104ff565b3480156102a6575f80fd5b506101476102b5366004610a6d565b61050e565b6101c361051b565b3480156102cd575f80fd5b506101676102dc366004610b06565b6001600160a01b039182165f90815260016020908152604080832093909416825291909152205490565b348015610311575f80fd5b506101c3610320366004610ae6565b61064b565b60606003805461033490610b37565b80601f016020809104026020016040519081016040528092919081815260200182805461036090610b37565b80156103ab5780601f10610382576101008083540402835291602001916103ab565b820191905f5260205f20905b81548152906001019060200180831161038e57829003601f168201915b5050505050905090565b5f336103c2818585610688565b60019150505b92915050565b5f336103db85828561069a565b6103e6858585610716565b506001949350505050565b6103f9610773565b47806104435760405162461bcd60e51b815260206004820152601460248201527329b2b69022aa24103830b930903932ba34b930b960611b60448201526064015b60405180910390fd5b6005546040516001600160a01b039091169082156108fc029083905f818181858888f1935050505015801561047a573d5f803e3d5ffd5b5050565b610486610773565b61047a82826107a0565b610498610773565b5f81116104e75760405162461bcd60e51b815260206004820152601d60248201527f507265636f206465766520736572206d61696f7220717565207a65726f000000604482015260640161043a565b600655565b6104f4610773565b6104fd5f6107d4565b565b60606004805461033490610b37565b5f336103c2818585610716565b5f341161056a5760405162461bcd60e51b815260206004820152601d60248201527f456e76696520455448207061726120636f6d7072617220746f6b656e73000000604482015260640161043a565b5f600654610576601290565b61058190600a610c66565b61058b9034610c74565b6105959190610c8b565b90505f81116105f25760405162461bcd60e51b8152602060048201526024808201527f45544820696e737566696369656e7465207061726120636f6d7072617220746f6044820152636b656e7360e01b606482015260840161043a565b61060e6106076005546001600160a01b031690565b3383610716565b6040805182815234602082015233917f8fafebcaf9d154343dad25669bfa277f4fbacd7ac6b0c4fed522580e040a0f33910160405180910390a250565b610653610773565b6001600160a01b03811661067c57604051631e4fbdf760e01b81525f600482015260240161043a565b610685816107d4565b50565b6106958383836001610825565b505050565b6001600160a01b038381165f908152600160209081526040808320938616835292905220545f19811015610710578181101561070257604051637dc7a0d960e11b81526001600160a01b0384166004820152602481018290526044810183905260640161043a565b61071084848484035f610825565b50505050565b6001600160a01b03831661073f57604051634b637e8f60e11b81525f600482015260240161043a565b6001600160a01b0382166107685760405163ec442f0560e01b81525f600482015260240161043a565b6106958383836108f7565b6005546001600160a01b031633146104fd5760405163118cdaa760e01b815233600482015260240161043a565b6001600160a01b0382166107c95760405163ec442f0560e01b81525f600482015260240161043a565b61047a5f83836108f7565b600580546001600160a01b038381166001600160a01b0319831681179093556040519116919082907f8be0079c531659141344cd1fd0a4f28419497f9722a3daafe3b4186f6b6457e0905f90a35050565b6001600160a01b03841661084e5760405163e602df0560e01b81525f600482015260240161043a565b6001600160a01b03831661087757604051634a1406b160e11b81525f600482015260240161043a565b6001600160a01b038085165f908152600160209081526040808320938716835292905220829055801561071057826001600160a01b0316846001600160a01b03167f8c5be1e5ebec7d5bd14f71427d1e84f3dd0314c0f7b2291e5b200ac8c7c3b925846040516108e991815260200190565b60405180910390a350505050565b6001600160a01b038316610921578060025f8282546109169190610caa565b909155506109919050565b6001600160a01b0383165f90815260208190526040902054818110156109735760405163391434e360e21b81526001600160a01b0385166004820152602481018290526044810183905260640161043a565b6001600160a01b0384165f9081526020819052604090209082900390555b6001600160a01b0382166109ad576002805482900390556109cb565b6001600160a01b0382165f9081526020819052604090208054820190555b816001600160a01b0316836001600160a01b03167fddf252ad1be2c89b69c2b068fc378daa952ba7f163c4a11628f55a4df523b3ef83604051610a1091815260200190565b60405180910390a3505050565b602081525f82518060208401528060208501604085015e5f604082850101526040601f19601f83011684010191505092915050565b80356001600160a01b0381168114610a68575f80fd5b919050565b5f8060408385031215610a7e575f80fd5b610a8783610a52565b946020939093013593505050565b5f805f60608486031215610aa7575f80fd5b610ab084610a52565b9250610abe60208501610a52565b929592945050506040919091013590565b5f60208284031215610adf575f80fd5b5035919050565b5f60208284031215610af6575f80fd5b610aff82610a52565b9392505050565b5f8060408385031215610b17575f80fd5b610b2083610a52565b9150610b2e60208401610a52565b90509250929050565b600181811c90821680610b4b57607f821691505b602082108103610b6957634e487b7160e01b5f52602260045260245ffd5b50919050565b634e487b7160e01b5f52601160045260245ffd5b6001815b6001841115610bbe57808504811115610ba257610ba2610b6f565b6001841615610bb057908102905b60019390931c928002610b87565b935093915050565b5f82610bd4575060016103c8565b81610be057505f6103c8565b8160018114610bf65760028114610c0057610c1c565b60019150506103c8565b60ff841115610c1157610c11610b6f565b50506001821b6103c8565b5060208310610133831016604e8410600b8410161715610c3f575081810a6103c8565b610c4b5f198484610b83565b805f1904821115610c5e57610c5e610b6f565b029392505050565b5f610aff60ff841683610bc6565b80820281158282048414176103c8576103c8610b6f565b5f82610ca557634e487b7160e01b5f52601260045260245ffd5b500490565b808201808211156103c8576103c8610b6f56fea2646970667358221220b9884ca9b13853df5ef2bb754bad428ed3548add0dcd1a24e61b562c5fd3639164736f6c634300081a0033",
  "linkReferences": {},
  "deployedLinkReferences": {}
}