{
  "_format": "hh-sol-artifact-1",
  "contractName": "FundStaking",
  "sourceName": "contracts/FundStaking.sol",
  "abi": [
    {
      "inputs": [
        {
          "internalType": "address",
          "name": "_fundToken",
          "type": "address"
        },
        {
          "internalType": "address",
          "name": "_priceFeed",
          "type": "address"
        }
      ],
      "stateMutability": "nonpayable",
      "type": "constructor"
    },
    {
      "inputs": [
        {
          "internalType": "address",
          "name": "owner",
          "type": "address"
        }
      ],
      "name": "OwnableInvalidOwner",
      "type": "error"
    },
    {
      "inputs": [
        {
          "internalType": "address",
          "name": "account",
          "type": "address"
        }
      ],
      "name": "OwnableUnauthorizedAccount",
      "type": "error"
    },
    {
      "inputs": [],
      "name": "ReentrancyGuardReentrantCall",
      "type": "error"
    },
    {
      "anonymous": false,
      "inputs": [
        {
          "indexed": true,
          "internalType": "address",
          "name": "previousOwner",
          "type": "address"
        },
        {
          "indexed": true,
          "internalType": "address",
          "name": "newOwner",
          "type": "address"
        }
      ],
      "name": "OwnershipTransferred",
      "type": "event"
    },
    {
      "anonymous": false,
      "inputs": [
        {
          "indexed": true,
          "internalType": "address",
          "name": "usuario",
          "type": "address"
        },
        {
          "indexed": false,
          "internalType": "uint256",
          "name": "quantidade",
          "type": "uint256"
        }
      ],
      "name": "RecompensaResgatada",
      "type": "event"
    },
    {
      "anonymous": false,
      "inputs": [
        {
          "indexed": true,
          "internalType": "address",
          "name": "usuario",
          "type": "address"
        },
        {
          "indexed": false,
          "internalType": "uint256",
          "name": "quantidade",
          "type": "uint256"
        }
      ],
      "name": "Staked",
      "type": "event"
    },
    {
      "anonymous": false,
      "inputs": [
        {
          "indexed": true,
          "internalType": "address",
          "name": "usuario",
          "type": "address"
        },
        {
          "indexed": false,
          "internalType": "uint256",
          "name": "quantidade",
          "type": "uint256"
        }
      ],
      "name": "Unstaked",
      "type": "event"
    },
    {
      "inputs": [
        {
          "internalType": "address",
          "name": "_staker",
          "type": "address"
        }
      ],
      "name": "calcularRecompensa",
      "outputs": [
        {
          "internalType": "uint256",
          "name": "",
          "type": "uint256"
        }
      ],
      "stateMutability": "view",
      "type": "function"
    },
    {
      "inputs": [],
      "name": "fundToken",
      "outputs": [
        {
          "internalType": "contract IERC20",
          "name": "",
          "type": "address"
        }
      ],
      "stateMutability": "view",
      "type": "function"
    },
    {
      "inputs": [],
      "name": "obterPrecoETH",
      "outputs": [
        {
          "internalType": "uint256",
          "name": "",
          "type": "uint256"
        }
      ],
      "stateMutability": "view",
      "type": "function"
    },
    {
      "inputs": [],
      "name": "owner",
      "outputs": [
        {
          "internalType": "address",
          "name": "",
          "type": "address"
        }
      ],
      "stateMutability": "view",
      "type": "function"
    },
    {
      "inputs": [],
      "name": "priceFeed",
      "outputs": [
        {
          "internalType": "contract AggregatorV3Interface",
          "name": "",
          "type": "address"
        }
      ],
      "stateMutability": "view",
      "type": "function"
    },
    {
      "inputs": [
        {
          "internalType": "address",
          "name": "_usuario",
          "type": "address"
        }
      ],
      "name": "recompensaPendente",
      "outputs": [
        {
          "internalType": "uint256",
          "name": "",
          "type": "uint256"
        }
      ],
      "stateMutability": "view",
      "type": "function"
    },
    {
      "inputs": [],
      "name": "renounceOwnership",
      "outputs": [],
      "stateMutability": "nonpayable",
      "type": "function"
    },
    {
      "inputs": [],
      "name": "resgatarRecompensa",
      "outputs": [],
      "stateMutability": "nonpayable",
      "type": "function"
    },
    {
      "inputs": [
        {
          "internalType": "address",
          "name": "_usuario",
          "type": "address"
        }
      ],
      "name": "saldoEmStake",
      "outputs": [
        {
          "internalType": "uint256",
          "name": "",
          "type": "uint256"
        }
      ],
      "stateMutability": "view",
      "type": "function"
    },
    {
      "inputs": [
        {
          "internalType": "uint256",
          "name": "_novaTaxa",
          "type": "uint256"
        }
      ],
      "name": "setTaxaRecompensa",
      "outputs": [],
      "stateMutability": "nonpayable",
      "type": "function"
    },
    {
      "inputs": [
        {
          "internalType": "uint256",
          "name": "_quantidade",
          "type": "uint256"
        }
      ],
      "name": "stake",
      "outputs": [],
      "stateMutability": "nonpayable",
      "type": "function"
    },
    {
      "inputs": [
        {
          "internalType": "address",
          "name": "",
          "type": "address"
        }
      ],
      "name": "stakers",
      "outputs": [
        {
          "internalType": "uint256",
          "name": "saldoStake",
          "type": "uint256"
        },
        {
          "internalType": "uint256",
          "name": "recompensaAcumulada",
          "type": "uint256"
        },
        {
          "internalType": "uint256",
          "name": "ultimaAtualizacao",
          "type": "uint256"
        }
      ],
      "stateMutability": "view",
      "type": "function"
    },
    {
      "inputs": [],
      "name": "taxaRecompensa",
      "outputs": [
        {
          "internalType": "uint256",
          "name": "",
          "type": "uint256"
        }
      ],
      "stateMutability": "view",
      "type": "function"
    },
    {
      "inputs": [],
      "name": "totalStaked",
      "outputs": [
        {
          "internalType": "uint256",
          "name": "",
          "type": "uint256"
        }
      ],
      "stateMutability": "view",
      "type": "function"
    },
    {
      "inputs": [
        {
          "internalType": "address",
          "name": "newOwner",
          "type": "address"
        }
      ],
      "name": "transferOwnership",
      "outputs": [],
      "stateMutability": "nonpayable",
      "type": "function"
    },
    {
      "inputs": [
        {
          "internalType": "uint256",
          "name": "_quantidade",
          "type": "uint256"
        }
      ],
      "name": "unstake",
      "outputs": [],
      "stateMutability": "nonpayable",
      "type": "function"
    }
  ],
  "bytecode": "0x60806040526064600355348015610014575f80fd5b50604051610e89380380610e89833981016040819052610033916101ce565b60017f9b779b17422d0df92223018b32b4d1fa46e071723d6817e2486d003becc55f0055338061007d57604051631e4fbdf760e01b81525f60048201526024015b60405180910390fd5b61008681610164565b506001600160a01b0382166100dd5760405162461bcd60e51b815260206004820152601a60248201527f456e64657265636f20646f20746f6b656e20696e76616c69646f0000000000006044820152606401610074565b6001600160a01b0381166101335760405162461bcd60e51b815260206004820152601c60248201527f456e64657265636f20646f206f726163756c6f20696e76616c69646f000000006044820152606401610074565b600180546001600160a01b039384166001600160a01b031991821617909155600280549290931691161790556101ff565b5f80546001600160a01b038381166001600160a01b0319831681178455604051919092169283917f8be0079c531659141344cd1fd0a4f28419497f9722a3daafe3b4186f6b6457e09190a35050565b80516001600160a01b03811681146101c9575f80fd5b919050565b5f80604083850312156101df575f80fd5b6101e8836101b3565b91506101f6602084016101b3565b90509250929050565b610c7d8061020c5f395ff3fe608060405234801561000f575f80fd5b50600436106100fb575f3560e01c80639168ae7211610093578063f2a6883011610063578063f2a688301461022e578063f2fde38b14610241578063f69b6e6414610254578063f9f0bb7b14610267575f80fd5b80639168ae72146101c1578063a694fc3a1461020a578063bdf0be9f1461021d578063da24209814610226575f80fd5b8063715018a6116100ce578063715018a61461018d578063741bef1a14610195578063817b1cd2146101a85780638da5cb5b146101b1575f80fd5b8063012bb2b7146100ff5780631e0992de146101145780632e17de781461014f57806350adcdb714610162575b5f80fd5b61011261010d366004610a94565b61026f565b005b61013c610122366004610aab565b6001600160a01b03165f9081526004602052604090205490565b6040519081526020015b60405180910390f35b61011261015d366004610a94565b6102d0565b600154610175906001600160a01b031681565b6040516001600160a01b039091168152602001610146565b61011261045b565b600254610175906001600160a01b031681565b61013c60055481565b5f546001600160a01b0316610175565b6101ef6101cf366004610aab565b60046020525f908152604090208054600182015460029092015490919083565b60408051938452602084019290925290820152606001610146565b610112610218366004610a94565b61046e565b61013c60035481565b610112610631565b61013c61023c366004610aab565b610777565b61011261024f366004610aab565b6107ac565b61013c610262366004610aab565b6107e6565b61013c6108a8565b610277610978565b5f81116102cb5760405162461bcd60e51b815260206004820152601c60248201527f54617861206465766520736572206d61696f7220717565207a65726f0000000060448201526064015b60405180910390fd5b600355565b6102d86109a4565b5f81116102f75760405162461bcd60e51b81526004016102c290610ad8565b335f908152600460205260409020548111156103555760405162461bcd60e51b815260206004820152601b60248201527f53616c646f20656d207374616b6520696e737566696369656e7465000000000060448201526064016102c2565b61035e336109bf565b335f908152600460205260408120805483929061037c908490610b2e565b925050819055508060055f8282546103949190610b2e565b909155505060015460405163a9059cbb60e01b8152336004820152602481018390526001600160a01b039091169063a9059cbb906044016020604051808303815f875af11580156103e7573d5f803e3d5ffd5b505050506040513d601f19601f8201168201806040525081019061040b9190610b41565b5060405181815233907f0f5bb82176feb1b5e747e28471aa92156a04d9f3ab9f45f28e2d704232b93f75906020015b60405180910390a261045860015f80516020610c2883398151915255565b50565b610463610978565b61046c5f610a16565b565b6104766109a4565b5f81116104955760405162461bcd60e51b81526004016102c290610ad8565b6001546040516370a0823160e01b815233600482015282916001600160a01b0316906370a0823190602401602060405180830381865afa1580156104db573d5f803e3d5ffd5b505050506040513d601f19601f820116820180604052508101906104ff9190610b60565b10156105425760405162461bcd60e51b815260206004820152601260248201527153616c646f20696e737566696369656e746560701b60448201526064016102c2565b61054b336109bf565b6001546040516323b872dd60e01b8152336004820152306024820152604481018390526001600160a01b03909116906323b872dd906064016020604051808303815f875af115801561059f573d5f803e3d5ffd5b505050506040513d601f19601f820116820180604052508101906105c39190610b41565b50335f90815260046020526040812080548392906105e2908490610b77565b925050819055508060055f8282546105fa9190610b77565b909155505060405181815233907f9e71bc8eea02a63969f509818f2dafb9254532904319f9dbda79b67bd34a5f3d9060200161043a565b6106396109a4565b610642336109bf565b335f90815260046020526040902060010154806106a15760405162461bcd60e51b815260206004820152601960248201527f53656d207265636f6d70656e736120646973706f6e6976656c0000000000000060448201526064016102c2565b335f8181526004602081905260408083206001908101939093559154915163a9059cbb60e01b815290810192909252602482018390526001600160a01b03169063a9059cbb906044016020604051808303815f875af1158015610706573d5f803e3d5ffd5b505050506040513d601f19601f8201168201806040525081019061072a9190610b41565b5060405181815233907f33fe753e6b23eef64dd75a4d0a10c69fa559f417378108efa6c9bcadc50dc38b9060200160405180910390a25061046c60015f80516020610c2883398151915255565b5f610781826107e6565b6001600160a01b0383165f908152600460205260409020600101546107a69190610b77565b92915050565b6107b4610978565b6001600160a01b0381166107dd57604051631e4fbdf760e01b81525f60048201526024016102c2565b61045881610a16565b6001600160a01b0381165f908152600460209081526040808320815160608101835281548082526001830154948201949094526002909101549181019190915290820361083557505f92915050565b5f8160400151426108469190610b2e565b90505f6108516108a8565b9050642e90edd0005f61086c83670de0b6b3a7640000610b8a565b8285600354885f015161087f9190610b8a565b6108899190610b8a565b6108939190610b8a565b61089d9190610ba1565b979650505050505050565b5f8060025f9054906101000a90046001600160a01b03166001600160a01b031663feaf968c6040518163ffffffff1660e01b815260040160a060405180830381865afa1580156108fa573d5f803e3d5ffd5b505050506040513d601f19601f8201168201806040525081019061091e9190610bd9565b5050509150505f81136109735760405162461bcd60e51b815260206004820152601960248201527f507265636f20696e76616c69646f20646f206f726163756c6f0000000000000060448201526064016102c2565b919050565b5f546001600160a01b0316331461046c5760405163118cdaa760e01b81523360048201526024016102c2565b6109ac610a65565b60025f80516020610c2883398151915255565b6109c8816107e6565b6001600160a01b0382165f90815260046020526040812060010180549091906109f2908490610b77565b90915550506001600160a01b03165f90815260046020526040902042600290910155565b5f80546001600160a01b038381166001600160a01b0319831681178455604051919092169283917f8be0079c531659141344cd1fd0a4f28419497f9722a3daafe3b4186f6b6457e09190a35050565b5f80516020610c288339815191525460020361046c57604051633ee5aeb560e01b815260040160405180910390fd5b5f60208284031215610aa4575f80fd5b5035919050565b5f60208284031215610abb575f80fd5b81356001600160a01b0381168114610ad1575f80fd5b9392505050565b60208082526022908201527f5175616e746964616465206465766520736572206d61696f7220717565207a65604082015261726f60f01b606082015260800190565b634e487b7160e01b5f52601160045260245ffd5b818103818111156107a6576107a6610b1a565b5f60208284031215610b51575f80fd5b81518015158114610ad1575f80fd5b5f60208284031215610b70575f80fd5b5051919050565b808201808211156107a6576107a6610b1a565b80820281158282048414176107a6576107a6610b1a565b5f82610bbb57634e487b7160e01b5f52601260045260245ffd5b500490565b805169ffffffffffffffffffff81168114610973575f80fd5b5f805f805f60a08688031215610bed575f80fd5b610bf686610bc0565b60208701516040880151606089015192975090955093509150610c1b60808701610bc0565b9050929550929590935056fe9b779b17422d0df92223018b32b4d1fa46e071723d6817e2486d003becc55f00a2646970667358221220b295213dbbb212b52b9bf18dc16fa51ef83fe65610fdef81947acf964bf83d2964736f6c634300081a0033",
  "linkReferences": {},
  "deployedLinkReferences": {}
}