{
  "_format": "hh-sol-artifact-1",
  "contractName": "FundNFT",
  "sourceName": "contracts/FundNFT.sol",
  "abi": [
    {
      "inputs": [],
      "stateMutability": "nonpayable",
      "type": "constructor"
    },
    {
      "inputs": [
        {
          "internalType": "address",
          "name": "sender",
          "type": "address"
        },
        {
          "internalType": "uint256",
          "name": "tokenId",
          "type": "uint256"
        },
        {
          "internalType": "address",
          "name": "owner",
          "type": "address"
        }
      ],
      "name": "ERC721IncorrectOwner",
      "type": "error"
    },
    {
      "inputs": [
        {
          "internalType": "address",
          "name": "operator",
          "type": "address"
        },
        {
          "internalType": "uint256",
          "name": "tokenId",
          "type": "uint256"
        }
      ],
      "name": "ERC721InsufficientApproval",
      "type": "error"
    },
    {
      "inputs": [
        {
          "internalType": "address",
          "name": "approver",
          "type": "address"
        }
      ],
      "name": "ERC721InvalidApprover",
      "type": "error"
    },
    {
      "inputs": [
        {
          "internalType": "address",
          "name": "operator",
          "type": "address"
        }
      ],
      "name": "ERC721InvalidOperator",
      "type": "error"
    },
    {
      "inputs": [
        {
          "internalType": "address",
          "name": "owner",
          "type": "address"
        }
      ],
      "name": "ERC721InvalidOwner",
      "type": "error"
    },
    {
      "inputs": [
        {
          "internalType": "address",
          "name": "receiver",
          "type": "address"
        }
      ],
      "name": "ERC721InvalidReceiver",
      "type": "error"
    },
    {
      "inputs": [
        {
          "internalType": "address",
          "name": "sender",
          "type": "address"
        }
      ],
      "name": "ERC721InvalidSender",
      "type": "error"
    },
    {
      "inputs": [
        {
          "internalType": "uint256",
          "name": "tokenId",
          "type": "uint256"
        }
      ],
      "name": "ERC721NonexistentToken",
      "type": "error"
    },
    {
      "inputs": [
        {
          "internalType": "address",
          "name": "owner",
          "type": "address"
        }
      ],
      "name": "OwnableInvalidOwner",
      "type": "error"
    },
    {
      "inputs": [
        {
          "internalType": "address",
          "name": "account",
          "type": "address"
        }
      ],
      "name": "OwnableUnauthorizedAccount",
      "type": "error"
    },
    {
      "anonymous": false,
      "inputs": [
        {
          "indexed": true,
          "internalType": "address",
          "name": "owner",
          "type": "address"
        },
        {
          "indexed": true,
          "internalType": "address",
          "name": "approved",
          "type": "address"
        },
        {
          "indexed": true,
          "internalType": "uint256",
          "name": "tokenId",
          "type": "uint256"
        }
      ],
      "name": "Approval",
      "type": "event"
    },
    {
      "anonymous": false,
      "inputs": [
        {
          "indexed": true,
          "internalType": "address",
          "name": "owner",
          "type": "address"
        },
        {
          "indexed": true,
          "internalType": "address",
          "name": "operator",
          "type": "address"
        },
        {
          "indexed": false,
          "internalType": "bool",
          "name": "approved",
          "type": "bool"
        }
      ],
      "name": "ApprovalForAll",
      "type": "event"
    },
    {
      "anonymous": false,
      "inputs": [
        {
          "indexed": true,
          "internalType": "uint256",
          "name": "tokenId",
          "type": "uint256"
        },
        {
          "indexed": true,
          "internalType": "address",
          "name": "apoiador",
          "type": "address"
        },
        {
          "indexed": false,
          "internalType": "string",
          "name": "nomeProjeto",
          "type": "string"
        },
        {
          "indexed": false,
          "internalType": "uint256",
          "name": "valorApoio",
          "type": "uint256"
        }
      ],
      "name": "CertificadoEmitido",
      "type": "event"
    },
    {
      "anonymous": false,
      "inputs": [
        {
          "indexed": true,
          "internalType": "address",
          "name": "previousOwner",
          "type": "address"
        },
        {
          "indexed": true,
          "internalType": "address",
          "name": "newOwner",
          "type": "address"
        }
      ],
      "name": "OwnershipTransferred",
      "type": "event"
    },
    {
      "anonymous": false,
      "inputs": [
        {
          "indexed": true,
          "internalType": "address",
          "name": "from",
          "type": "address"
        },
        {
          "indexed": true,
          "internalType": "address",
          "name": "to",
          "type": "address"
        },
        {
          "indexed": true,
          "internalType": "uint256",
          "name": "tokenId",
          "type": "uint256"
        }
      ],
      "name": "Transfer",
      "type": "event"
    },
    {
      "inputs": [
        {
          "internalType": "address",
          "name": "to",
          "type": "address"
        },
        {
          "internalType": "uint256",
          "name": "tokenId",
          "type": "uint256"
        }
      ],
      "name": "approve",
      "outputs": [],
      "stateMutability": "nonpayable",
      "type": "function"
    },
    {
      "inputs": [
        {
          "internalType": "address",
          "name": "owner",
          "type": "address"
        }
      ],
      "name": "balanceOf",
      "outputs": [
        {
          "internalType": "uint256",
          "name": "",
          "type": "uint256"
        }
      ],
      "stateMutability": "view",
      "type": "function"
    },
    {
      "inputs": [
        {
          "internalType": "uint256",
          "name": "",
          "type": "uint256"
        }
      ],
      "name": "certificados",
      "outputs": [
        {
          "internalType": "string",
          "name": "nomeProjeto",
          "type": "string"
        },
        {
          "internalType": "address",
          "name": "apoiador",
          "type": "address"
        },
        {
          "internalType": "uint256",
          "name": "valorApoio",
          "type": "uint256"
        },
        {
          "internalType": "uint256",
          "name": "dataEmissao",
          "type": "uint256"
        }
      ],
      "stateMutability": "view",
      "type": "function"
    },
    {
      "inputs": [
        {
          "internalType": "uint256",
          "name": "_tokenId",
          "type": "uint256"
        }
      ],
      "name": "consultarCertificado",
      "outputs": [
        {
          "internalType": "string",
          "name": "nomeProjeto",
          "type": "string"
        },
        {
          "internalType": "address",
          "name": "apoiador",
          "type": "address"
        },
        {
          "internalType": "uint256",
          "name": "valorApoio",
          "type": "uint256"
        },
        {
          "internalType": "uint256",
          "name": "dataEmissao",
          "type": "uint256"
        }
      ],
      "stateMutability": "view",
      "type": "function"
    },
    {
      "inputs": [
        {
          "internalType": "address",
          "name": "_apoiador",
          "type": "address"
        },
        {
          "internalType": "string",
          "name": "_nomeProjeto",
          "type": "string"
        },
        {
          "internalType": "uint256",
          "name": "_valorApoio",
          "type": "uint256"
        }
      ],
      "name": "emitirCertificado",
      "outputs": [
        {
          "internalType": "uint256",
          "name": "",
          "type": "uint256"
        }
      ],
      "stateMutability": "nonpayable",
      "type": "function"
    },
    {
      "inputs": [
        {
          "internalType": "uint256",
          "name": "tokenId",
          "type": "uint256"
        }
      ],
      "name": "getApproved",
      "outputs": [
        {
          "internalType": "address",
          "name": "",
          "type": "address"
        }
      ],
      "stateMutability": "view",
      "type": "function"
    },
    {
      "inputs": [
        {
          "internalType": "address",
          "name": "owner",
          "type": "address"
        },
        {
          "internalType": "address",
          "name": "operator",
          "type": "address"
        }
      ],
      "name": "isApprovedForAll",
      "outputs": [
        {
          "internalType": "bool",
          "name": "",
          "type": "bool"
        }
      ],
      "stateMutability": "view",
      "type": "function"
    },
    {
      "inputs": [
        {
          "internalType": "address",
          "name": "",
          "type": "address"
        },
        {
          "internalType": "string",
          "name": "",
          "type": "string"
        }
      ],
      "name": "jaApoiou",
      "outputs": [
        {
          "internalType": "bool",
          "name": "",
          "type": "bool"
        }
      ],
      "stateMutability": "view",
      "type": "function"
    },
    {
      "inputs": [],
      "name": "name",
      "outputs": [
        {
          "internalType": "string",
          "name": "",
          "type": "string"
        }
      ],
      "stateMutability": "view",
      "type": "function"
    },
    {
      "inputs": [],
      "name": "owner",
      "outputs": [
        {
          "internalType": "address",
          "name": "",
          "type": "address"
        }
      ],
      "stateMutability": "view",
      "type": "function"
    },
    {
      "inputs": [
        {
          "internalType": "uint256",
          "name": "tokenId",
          "type": "uint256"
        }
      ],
      "name": "ownerOf",
      "outputs": [
        {
          "internalType": "address",
          "name": "",
          "type": "address"
        }
      ],
      "stateMutability": "view",
      "type": "function"
    },
    {
      "inputs": [],
      "name": "renounceOwnership",
      "outputs": [],
      "stateMutability": "nonpayable",
      "type": "function"
    },
    {
      "inputs": [
        {
          "internalType": "address",
          "name": "from",
          "type": "address"
        },
        {
          "internalType": "address",
          "name": "to",
          "type": "address"
        },
        {
          "internalType": "uint256",
          "name": "tokenId",
          "type": "uint256"
        }
      ],
      "name": "safeTransferFrom",
      "outputs": [],
      "stateMutability": "nonpayable",
      "type": "function"
    },
    {
      "inputs": [
        {
          "internalType": "address",
          "name": "from",
          "type": "address"
        },
        {
          "internalType": "address",
          "name": "to",
          "type": "address"
        },
        {
          "internalType": "uint256",
          "name": "tokenId",
          "type": "uint256"
        },
        {
          "internalType": "bytes",
          "name": "data",
          "type": "bytes"
        }
      ],
      "name": "safeTransferFrom",
      "outputs": [],
      "stateMutability": "nonpayable",
      "type": "function"
    },
    {
      "inputs": [
        {
          "internalType": "address",
          "name": "operator",
          "type": "address"
        },
        {
          "internalType": "bool",
          "name": "approved",
          "type": "bool"
        }
      ],
      "name": "setApprovalForAll",
      "outputs": [],
      "stateMutability": "nonpayable",
      "type": "function"
    },
    {
      "inputs": [
        {
          "internalType": "bytes4",
          "name": "interfaceId",
          "type": "bytes4"
        }
      ],
      "name": "supportsInterface",
      "outputs": [
        {
          "internalType": "bool",
          "name": "",
          "type": "bool"
        }
      ],
      "stateMutability": "view",
      "type": "function"
    },
    {
      "inputs": [],
      "name": "symbol",
      "outputs": [
        {
          "internalType": "string",
          "name": "",
          "type": "string"
        }
      ],
      "stateMutability": "view",
      "type": "function"
    },
    {
      "inputs": [
        {
          "internalType": "uint256",
          "name": "tokenId",
          "type": "uint256"
        }
      ],
      "name": "tokenURI",
      "outputs": [
        {
          "internalType": "string",
          "name": "",
          "type": "string"
        }
      ],
      "stateMutability": "view",
      "type": "function"
    },
    {
      "inputs": [],
      "name": "totalEmitidos",
      "outputs": [
        {
          "internalType": "uint256",
          "name": "",
          "type": "uint256"
        }
      ],
      "stateMutability": "view",
      "type": "function"
    },
    {
      "inputs": [
        {
          "internalType": "address",
          "name": "from",
          "type": "address"
        },
        {
          "internalType": "address",
          "name": "to",
          "type": "address"
        },
        {
          "internalType": "uint256",
          "name": "tokenId",
          "type": "uint256"
        }
      ],
      "name": "transferFrom",
      "outputs": [],
      "stateMutability": "nonpayable",
      "type": "function"
    },
    {
      "inputs": [
        {
          "internalType": "address",
          "name": "newOwner",
          "type": "address"
        }
      ],
      "name": "transferOwnership",
      "outputs": [],
      "stateMutability": "nonpayable",
      "type": "function"
    }
  ],
  "bytecode": "0x608060405234801561000f575f80fd5b503360405180604001604052806007815260200166119d5b9913919560ca1b815250604051806040016040528060048152602001631193919560e21b815250815f908161005c9190610191565b5060016100698282610191565b5050506001600160a01b03811661009957604051631e4fbdf760e01b81525f600482015260240160405180910390fd5b6100a2816100a8565b5061024b565b600680546001600160a01b038381166001600160a01b0319831681179093556040519116919082907f8be0079c531659141344cd1fd0a4f28419497f9722a3daafe3b4186f6b6457e0905f90a35050565b634e487b7160e01b5f52604160045260245ffd5b600181811c9082168061012157607f821691505b60208210810361013f57634e487b7160e01b5f52602260045260245ffd5b50919050565b601f82111561018c57805f5260205f20601f840160051c8101602085101561016a5750805b601f840160051c820191505b81811015610189575f8155600101610176565b50505b505050565b81516001600160401b038111156101aa576101aa6100f9565b6101be816101b8845461010d565b84610145565b6020601f8211600181146101f0575f83156101d95750848201515b5f19600385901b1c1916600184901b178455610189565b5f84815260208120601f198516915b8281101561021f57878501518255602094850194600190920191016101ff565b508482101561023c57868401515f19600387901b60f8161c191681555b50505050600190811b01905550565b6117eb806102585f395ff3fe608060405234801561000f575f80fd5b5060043610610132575f3560e01c80638da5cb5b116100b4578063ac88b19d11610079578063ac88b19d1461027f578063b88d4fde146102bd578063c87b56dd146102d0578063d2c00511146102e3578063e985e9c5146102f6578063f2fde38b14610309575f80fd5b80638da5cb5b146102285780638e59bb481461023957806395d89b411461025c57806399618a8714610264578063a22cb4651461026c575f80fd5b806335619dba116100fa57806335619dba146101c657806342842e0e146101e75780636352211e146101fa57806370a082311461020d578063715018a614610220575f80fd5b806301ffc9a71461013657806306fdde031461015e578063081812fc14610173578063095ea7b31461019e57806323b872dd146101b3575b5f80fd5b610149610144366004611244565b61031c565b60405190151581526020015b60405180910390f35b61016661036d565b604051610155919061128d565b61018661018136600461129f565b6103fc565b6040516001600160a01b039091168152602001610155565b6101b16101ac3660046112d1565b610423565b005b6101b16101c13660046112f9565b610432565b6101d96101d43660046113dc565b6104c0565b604051908152602001610155565b6101b16101f53660046112f9565b61071f565b61018661020836600461129f565b61073e565b6101d961021b366004611430565b610748565b6101b161078d565b6006546001600160a01b0316610186565b61024c61024736600461129f565b6107a0565b6040516101559493929190611449565b610166610859565b6007546101d9565b6101b161027a366004611480565b610868565b61014961028d3660046114b9565b600960209081525f9283526040909220815180830184018051928152908401929093019190912091525460ff1681565b6101b16102cb366004611504565b610873565b6101666102de36600461129f565b61088b565b61024c6102f136600461129f565b6108fc565b61014961030436600461157b565b610a5d565b6101b1610317366004611430565b610a8a565b5f6001600160e01b031982166380ac58cd60e01b148061034c57506001600160e01b03198216635b5e139f60e01b145b8061036757506301ffc9a760e01b6001600160e01b03198316145b92915050565b60605f805461037b906115ac565b80601f01602080910402602001604051908101604052809291908181526020018280546103a7906115ac565b80156103f25780601f106103c9576101008083540402835291602001916103f2565b820191905f5260205f20905b8154815290600101906020018083116103d557829003601f168201915b5050505050905090565b5f61040682610ac7565b505f828152600460205260409020546001600160a01b0316610367565b61042e828233610aff565b5050565b6001600160a01b03821661046057604051633250574960e11b81525f60048201526024015b60405180910390fd5b5f61046c838333610b0c565b9050836001600160a01b0316816001600160a01b0316146104ba576040516364283d7b60e01b81526001600160a01b0380861660048301526024820184905282166044820152606401610457565b50505050565b5f6104c9610bfe565b6001600160a01b0384166105135760405162461bcd60e51b8152602060048201526011602482015270456e64657265636f20696e76616c69646f60781b6044820152606401610457565b5f83511161055b5760405162461bcd60e51b81526020600482015260156024820152744e6f6d6520646f2070726f6a65746f2076617a696f60581b6044820152606401610457565b6001600160a01b0384165f908152600960205260409081902090516105819085906115fb565b9081526040519081900360200190205460ff16156105ed5760405162461bcd60e51b815260206004820152602360248201527f4a6120706f7373756920636572746966696361646f2064657374652070726f6a60448201526265746f60e81b6064820152608401610457565b600780549081905f6105fe83611606565b919050555061060d8582610c2b565b604080516080810182528581526001600160a01b0387166020808301919091528183018690524260608301525f84815260089091529190912081518190610654908261166e565b50602082810151600183810180546001600160a01b0319166001600160a01b03938416179055604080860151600286015560609095015160039094019390935588165f908152600990915282902091519091906106b29087906115fb565b908152604051908190036020018120805492151560ff19909316929092179091556001600160a01b0386169082907f83cee74121ea3c9c4fe0dbd8263a0a88cc6ec8689700c18d65621ad353eb03a99061070f9088908890611729565b60405180910390a3949350505050565b61073983838360405180602001604052805f815250610873565b505050565b5f61036782610ac7565b5f6001600160a01b038216610772576040516322718ad960e21b81525f6004820152602401610457565b506001600160a01b03165f9081526003602052604090205490565b610795610bfe565b61079e5f610c44565b565b60086020525f90815260409020805481906107ba906115ac565b80601f01602080910402602001604051908101604052809291908181526020018280546107e6906115ac565b80156108315780601f1061080857610100808354040283529160200191610831565b820191905f5260205f20905b81548152906001019060200180831161081457829003601f168201915b505050506001830154600284015460039094015492936001600160a01b039091169290915084565b60606001805461037b906115ac565b61042e338383610c95565b61087e848484610432565b6104ba3385858585610d5c565b606061089682610ac7565b505f6108ac60408051602081019091525f815290565b90505f8151116108ca5760405180602001604052805f8152506108f5565b806108d484610e84565b6040516020016108e592919061174a565b6040516020818303038152906040525b9392505050565b60605f808080610920865f908152600260205260409020546001600160a01b031690565b6001600160a01b0316036109675760405162461bcd60e51b815260206004820152600e60248201526d4e4654206e616f2065786973746560901b6044820152606401610457565b5f8581526008602052604080822081516080810190925280548290829061098d906115ac565b80601f01602080910402602001604051908101604052809291908181526020018280546109b9906115ac565b8015610a045780601f106109db57610100808354040283529160200191610a04565b820191905f5260205f20905b8154815290600101906020018083116109e757829003601f168201915b505050918352505060018201546001600160a01b03166020808301919091526002830154604080840191909152600390930154606092830152835190840151928401519390910151909991985091965090945092505050565b6001600160a01b039182165f90815260056020908152604080832093909416825291909152205460ff1690565b610a92610bfe565b6001600160a01b038116610abb57604051631e4fbdf760e01b81525f6004820152602401610457565b610ac481610c44565b50565b5f818152600260205260408120546001600160a01b03168061036757604051637e27328960e01b815260048101849052602401610457565b6107398383836001610f14565b5f828152600260205260408120546001600160a01b0390811690831615610b3857610b38818486611018565b6001600160a01b03811615610b7257610b535f855f80610f14565b6001600160a01b0381165f90815260036020526040902080545f190190555b6001600160a01b03851615610ba0576001600160a01b0385165f908152600360205260409020805460010190555b5f8481526002602052604080822080546001600160a01b0319166001600160a01b0389811691821790925591518793918516917fddf252ad1be2c89b69c2b068fc378daa952ba7f163c4a11628f55a4df523b3ef91a4949350505050565b6006546001600160a01b0316331461079e5760405163118cdaa760e01b8152336004820152602401610457565b61042e828260405180602001604052805f81525061107c565b600680546001600160a01b038381166001600160a01b0319831681179093556040519116919082907f8be0079c531659141344cd1fd0a4f28419497f9722a3daafe3b4186f6b6457e0905f90a35050565b6001600160a01b038316610cbe5760405163a9fbf51f60e01b81525f6004820152602401610457565b6001600160a01b038216610cf057604051630b61174360e31b81526001600160a01b0383166004820152602401610457565b6001600160a01b038381165f81815260056020908152604080832094871680845294825291829020805460ff191686151590811790915591519182527f17307eab39ab6107e8899845ad3d59bd9653f200f220920489ca2b5937696c31910160405180910390a3505050565b6001600160a01b0383163b15610e7d57604051630a85bd0160e11b81526001600160a01b0384169063150b7a0290610d9e90889088908790879060040161175e565b6020604051808303815f875af1925050508015610dd8575060408051601f3d908101601f19168201909252610dd59181019061179a565b60015b610e3f573d808015610e05576040519150601f19603f3d011682016040523d82523d5f602084013e610e0a565b606091505b5080515f03610e3757604051633250574960e11b81526001600160a01b0385166004820152602401610457565b805160208201fd5b6001600160e01b03198116630a85bd0160e11b14610e7b57604051633250574960e11b81526001600160a01b0385166004820152602401610457565b505b5050505050565b60605f610e9083611093565b60010190505f8167ffffffffffffffff811115610eaf57610eaf611333565b6040519080825280601f01601f191660200182016040528015610ed9576020820181803683370190505b5090508181016020015b5f19016f181899199a1a9b1b9c1cb0b131b232b360811b600a86061a8153600a8504945084610ee357509392505050565b8080610f2857506001600160a01b03821615155b15610fe9575f610f3784610ac7565b90506001600160a01b03831615801590610f635750826001600160a01b0316816001600160a01b031614155b8015610f765750610f748184610a5d565b155b15610f9f5760405163a9fbf51f60e01b81526001600160a01b0384166004820152602401610457565b8115610fe75783856001600160a01b0316826001600160a01b03167f8c5be1e5ebec7d5bd14f71427d1e84f3dd0314c0f7b2291e5b200ac8c7c3b92560405160405180910390a45b505b50505f90815260046020526040902080546001600160a01b0319166001600160a01b0392909216919091179055565b61102383838361116a565b610739576001600160a01b03831661105157604051637e27328960e01b815260048101829052602401610457565b60405163177e802f60e01b81526001600160a01b038316600482015260248101829052604401610457565b61108683836111ce565b610739335f858585610d5c565b5f8072184f03e93ff9f4daa797ed6e38ed64bf6a1f0160401b83106110d15772184f03e93ff9f4daa797ed6e38ed64bf6a1f0160401b830492506040015b6d04ee2d6d415b85acef810000000083106110fd576d04ee2d6d415b85acef8100000000830492506020015b662386f26fc10000831061111b57662386f26fc10000830492506010015b6305f5e1008310611133576305f5e100830492506008015b612710831061114757612710830492506004015b60648310611159576064830492506002015b600a83106103675760010192915050565b5f6001600160a01b038316158015906111c65750826001600160a01b0316846001600160a01b031614806111a357506111a38484610a5d565b806111c657505f828152600460205260409020546001600160a01b038481169116145b949350505050565b6001600160a01b0382166111f757604051633250574960e11b81525f6004820152602401610457565b5f61120383835f610b0c565b90506001600160a01b03811615610739576040516339e3563760e11b81525f6004820152602401610457565b6001600160e01b031981168114610ac4575f80fd5b5f60208284031215611254575f80fd5b81356108f58161122f565b5f81518084528060208401602086015e5f602082860101526020601f19601f83011685010191505092915050565b602081525f6108f5602083018461125f565b5f602082840312156112af575f80fd5b5035919050565b80356001600160a01b03811681146112cc575f80fd5b919050565b5f80604083850312156112e2575f80fd5b6112eb836112b6565b946020939093013593505050565b5f805f6060848603121561130b575f80fd5b611314846112b6565b9250611322602085016112b6565b929592945050506040919091013590565b634e487b7160e01b5f52604160045260245ffd5b5f8067ffffffffffffffff84111561136157611361611333565b50604051601f19601f85018116603f0116810181811067ffffffffffffffff8211171561139057611390611333565b6040528381529050808284018510156113a7575f80fd5b838360208301375f60208583010152509392505050565b5f82601f8301126113cd575f80fd5b6108f583833560208501611347565b5f805f606084860312156113ee575f80fd5b6113f7846112b6565b9250602084013567ffffffffffffffff811115611412575f80fd5b61141e868287016113be565b93969395505050506040919091013590565b5f60208284031215611440575f80fd5b6108f5826112b6565b608081525f61145b608083018761125f565b6001600160a01b03959095166020830152506040810192909252606090910152919050565b5f8060408385031215611491575f80fd5b61149a836112b6565b9150602083013580151581146114ae575f80fd5b809150509250929050565b5f80604083850312156114ca575f80fd5b6114d3836112b6565b9150602083013567ffffffffffffffff8111156114ee575f80fd5b6114fa858286016113be565b9150509250929050565b5f805f8060808587031215611517575f80fd5b611520856112b6565b935061152e602086016112b6565b925060408501359150606085013567ffffffffffffffff811115611550575f80fd5b8501601f81018713611560575f80fd5b61156f87823560208401611347565b91505092959194509250565b5f806040838503121561158c575f80fd5b611595836112b6565b91506115a3602084016112b6565b90509250929050565b600181811c908216806115c057607f821691505b6020821081036115de57634e487b7160e01b5f52602260045260245ffd5b50919050565b5f81518060208401855e5f93019283525090919050565b5f6108f582846115e4565b5f6001820161162357634e487b7160e01b5f52601160045260245ffd5b5060010190565b601f82111561073957805f5260205f20601f840160051c8101602085101561164f5750805b601f840160051c820191505b81811015610e7d575f815560010161165b565b815167ffffffffffffffff81111561168857611688611333565b61169c8161169684546115ac565b8461162a565b6020601f8211600181146116ce575f83156116b75750848201515b5f19600385901b1c1916600184901b178455610e7d565b5f84815260208120601f198516915b828110156116fd57878501518255602094850194600190920191016116dd565b508482101561171a57868401515f19600387901b60f8161c191681555b50505050600190811b01905550565b604081525f61173b604083018561125f565b90508260208301529392505050565b5f6111c661175883866115e4565b846115e4565b6001600160a01b03858116825284166020820152604081018390526080606082018190525f906117909083018461125f565b9695505050505050565b5f602082840312156117aa575f80fd5b81516108f58161122f56fea26469706673582212201513d92566e9d720afe40e8fe7678d650935111ae20011de0856341a831c98b264736f6c634300081a0033",
  "linkReferences": {},
  "deployedLinkReferences": {}
}